:100000000C9418030C9435030C9435030C943503AD
:100010000C94200F0C94F5110C9435030C943503BB
:100020000C9435030C9435030C9435030C94350370
:100030000C9435030C9435030C9435030C94350360
:100040000C94FA100C9435030C9435030C9435037E
:100050000C9435030C9435030C9435030C94350340
:100060000C9497060C9435033A30003A30006461E2
:100070007900474D322F6D696E3A00474D312F6D33
:10008000696E3A00202F686F75723A0020746F74A1
:10009000616C3A00474D3220746F743A00474D311D
:1000A00020746F743A00202F686F75723A002074C4
:1000B0006F74616C3A002000200020002A002A00A2
:1000C000474D322F7365633A00474D312F73656397
:1000D0003A00202F6D696E3A0020746F74616C3A9B
:1000E00000474D322F6D696E3A00474D312F6D69D3
:1000F0006E3A00202F686F75723A0020746F746139
:100100006C3A0020002A0020002A0020002A002A41
:10011000002000200020002A004F46462020004DED
:100120005520202000474D202020004D5520474DD0
:10013000004F4646004F4E20004C4544004F464677
:10014000006D756F6E68756E7465722E636F6D00ED
:100150004669726D776172653A76302E3361003090
:10016000300073657269616C3A004D756F6E20489E
:10017000756E74657200109244102810449210003D
:10018000000000000000000000000000000000006F
:10019000000000000000000000000000000000005F
:1001A0000038384482281044380000000000000065
:1001B000000000000000000000000000000000003F
:1001C00000000000000000000000FE0408041E0003
:1001D000000000000000000000000000000000001F
:1001E000000000000000000000000000000000000F
:1001F00000000000000000000000000000000000FF
:1002000000000000000000000000000000000000EE
:100210000000000000000000000000000000FE04DC
:1002200008041E00000000000000000000000000A4
:1002300000000000000000000000000000000000BE
:1002400000000000000000000000000000000000AE
:10025000000000000000000000000000000000009E
:10026000000000000000000000000000000000008E
:10027000000000000000000000000000000000007E
:10028000000000000000000000000000000000006E
:10029000000000000000000000000000000000005E
:1002A000000000000000000000000000000000004E
:1002B000000000000000000000000000000000003E
:1002C000000000000000000000000000000000002E
:1002D000000000000000000000000000000000001E
:1002E000000000000000000000000000000000000E
:1002F00000000000000000000000000000000000FE
:1003000000000000000000000000000000000000ED
:1003100000000000000000000000000000000000DD
:1003200000000000000000000000000000000000CD
:1003300000000000000000000000000000000000BD
:1003400000000000000000000000000000000000AD
:10035000000000000000000000000000000000009D
:10036000000000000000000000000000000000008D
:1003700000000000002F00000007000700147F1499
:100380007F14242A7F2A12C4C810264636495522D3
:10039000500005030000001C2241000041221C0007
:1003A00014083E081408083E0808000050300010E9
:1003B00010101010006060000020100804023E5170
:1003C00049453E00427F4000426151494621414536
:1003D0004B311814127F1027454545393C4A49498D
:1003E0003001710905033649494936064949291E34
:1003F0000036360000005636000008142241001472
:10040000141414140041221408020151090632493F
:1004100059513E7E1111117E7F494949363E414175
:1004200041227F4141221C7F494949417F090909F5
:10043000013E4149497A7F0808087F00417F410019
:100440002040413F017F081422417F404040407FCF
:10045000020C027F7F0408107F3E4141413E7F092C
:100460000909063E4151215E7F091929464649493D
:10047000493101017F01013F4040403F1F204020A2
:100480001F3F4038403F6314081463070870080793
:100490006151494543007F414100552A552A550085
:1004A00041417F00040201020440404040400001FD
:1004B00002040020545454787F484444383844445B
:1004C0004420384444487F3854545418087E090165
:1004D000020C5252523E7F0804047800447D4000D2
:1004E0002040443D007F1028440000417F40007CB4
:1004F000041804787C0804047838444444387C1494
:10050000141408081414187C7C0804040848545473
:100510005420043F4440203C4040207C1C2040208C
:100520001C3C4030403C44281028440C5050503C67
:100530004464544C4400407A10F35A00A0724E18A0
:10054000090010A5D4E80000E87648170000E40B85
:1005500054020000CA9A3B000000E1F5050000804B
:10056000969800000040420F000000A086010000A5
:1005700000102700000000E80300000000640000F5
:100580000000000A00000000000100000000002C34
:1005900076D888DC674F0823DFC1DFAE59E1B1B7F9
:1005A00096E5E3E453C63AE651997696E8E6C284C6
:1005B00026EB898C9B62ED407C6FFCEFBC9C9F40DE
:1005C000F2BAA56FA5F490055A2AF75C936B6CF903
:1005D000676DC11BFCE0E40D47FEF520E6B500D0D9
:1005E000ED902E0300943577050080841E080000EE
:1005F000204E0A000000C80C333333330F986E12BC
:10060000831141EF8D2114893BE65516CFFEE6DBC1
:1006100018D1844B381BF77C1D901DA4BBE424200B
:100620003284725E228100C9F124ECA1E53D2700ED
:1006300011241FBECFEFD4E0DEBFCDBF11E0A0E09C
:10064000B1E0E6E2FEE202C005900D92A230B107F1
:10065000D9F714E0A2E0B1E001C01D92AF3AB107B2
:10066000E1F70E94A8120C9411170C9400002A982C
:100670006130710511F4289A01C028988EBD0DB41F
:1006800007FEFDCF2A9A0895CF93C82F60E070E04F
:1006900081E20E94370360E070E08C2F80680E9446
:1006A000370360E070E080E20E943703CF91089545
:1006B00088EF91E0E0E3F1E0DF019C011D92215021
:1006C0003040E1F710922D0110922C0187EF91E05C
:1006D00090932B0180932A0181E080932901089552
:1006E0008F30D8F46730C8F490E0019746E0489F17
:1006F0009001499F300D112470E06150710944E56B
:10070000469FC001479F900D1124280F391F309339
:100710002F0120932E0180E0089581E008951F931A
:10072000CF93DF9320912E0130912F0140912C0126
:1007300050912D012417350724F430932D01209377
:100740002C0140EE460F4C3508F06CE581309105E8
:10075000C9F4C9012B5F3F4F45E0649FB0011124EC
:10076000681B790B62537D4FFB01E80FF91FE49181
:10077000DC01A05DBE4FEE0FEC930196821793074C
:1007800099F767C0029709F068C0C90184559109BB
:1007900040912C0150912D018417950724F49093DA
:1007A0002D0180932C0197FD7CC0AC0185E0689FF2
:1007B000B001112480E090E062537D4F1CE0D8E14D
:1007C000FB01E80FF91FE491EE0FAE2FA470A19F7B
:1007D000A02D1124BE2FB270FB2FFF0FFB0FFF0FB8
:1007E000AF2BFE2FF870FD9FF02D1124AF2BE2955B
:1007F000EF70FE2FF270CF2FCC0FCF0FCC0FBE2F8C
:10080000B170FB2FFF0FFB0FCF2BFE2FF470F19F6A
:10081000F02D1124CF2BE870ED9FE02D1124CE2B6D
:10082000FA01E05DFE4FA083A183DF01AC5ABF4F08
:10083000CC93EB5AFF4FC08301964E5F5F4F8530DC
:10084000910509F0BDCFC9010B9668EF71E00E94D8
:10085000CB1290932F0180932E0180912E019091C5
:100860002F0120912A0130912B012817390724F4F8
:1008700090932B0180932A01FC01E05DFE4F1082D2
:10088000873F21E0920731F410922F0110922E0140
:1008900082E008C0019690932F0180932E0180E0A2
:1008A00001C081E0DF91CF911F910895FF920F93D6
:1008B0001F93CF93DF93EC018B01F12CF801EF0D27
:1008C000F11D6081662339F0CE010E948F038130D3
:1008D00021F0F394F3CF80E001C081E0CDB7DEB723
:1008E000E5E00C942A130F931F93CF93DF938C01B1
:1008F000EB01FE016491662339F0C8010E948F0369
:10090000813021F02196F5CF80E001C081E0DF91B8
:10091000CF911F910F910895853508F04FC0613335
:1009200008F04CC0262F26952695269590E034E5B4
:10093000239F800D911D112438EF239F600D1124FA
:10094000FC01E05DFE4F70814115510551F421E03D
:1009500030E0062E01C0220F0A94EAF72095722398
:1009600015C04130510539F4062E01C0440F0A94D8
:10097000EAF7742B0BC04230510541F421E030E01E
:10098000062E01C0220F0A94EAF772277083209185
:100990002C0130912D018217930720F490932D01A3
:1009A00080932C0120912A0130912B0128173907BF
:1009B00038F490932B0180932A0102C081E00895BE
:1009C00080E00895A0E0B0E0E8EEF4E00C940513B8
:1009D000A82ED62EB42E722EC22FD0E0C41BD10961
:1009E000E62EF12CE81AF108D7FF06C0D195C19583
:1009F000D10988248A9402C088248394F7FE06C013
:100A0000F194E194F10899249A9402C09924939462
:100A1000A8016B2D8A2D0E948C0481113BC0EE0C25
:100A2000FF1CCC0FDD1FCE15DF05C4F4C701959563
:100A300087953E01681A790AAD14C1F077FC03C0AE
:100A4000B80C6E187F08A90C6C0E7D1EA8016B2DCA
:100A50008A2D0E948C04882379F31CC0CE019595C1
:100A600087956701C81AD90AB71005C081E080933D
:100A7000290180E00FC0D7FC03C0A90CCC1ADD0A05
:100A8000B80CCE0CDF1CA8016B2D8A2D0E948C04A3
:100A9000882351F3CDB7DEB7EEE00C942113A0E02C
:100AA000B0E0E5E5F5E00C940B13C82EE62E84E5E6
:100AB0008C1528F180E3861710F1641718F0F62ED4
:100AC000F41A01C0F12CC22FD0E0CC0DD11DFE14C0
:100AD00088F4DC2C2D2D30E02C173D074CF4A801B8
:100AE0006F2D8D2D0E948C0481110AC0D394F2CFFA
:100AF000F394EDCF81E08093290180E001C081E093
:100B0000CDB7DEB7E8E00C942713A0E0B0E0EBE847
:100B1000F5E00C940913D62EE42EA22E62E0B62E38
:100B2000B40EC82EEC0175E0F72E80E09C2F9C19C6
:100B30009D15B0F4853510F081E016C049914A9DAD
:100B4000402D112401E010E02E2D66E28F2D0E9431
:100B50004F059F2D9B0D813079F38F2DF92EE6CF18
:100B600081E08093290180E0CDB7DEB7EAE00C9404
:100B70002513A1E0B0E0EFEBF5E00C940B13F82E99
:100B8000E62ED42E84E58F15F8F08617E8F0E0E322
:100B9000E417D0F02133C0F4F616C0F44217B0F4D5
:100BA000CF2CA8016D2D8C2D29830E948C042981C6
:100BB00081110DC0C394CE10F4CFD394D212F0CFD4
:100BC00081E08093290102C081E001C080E021968C
:100BD000E8E00C94271348EF51E0BC0180E391E07A
:100BE0000E94B21410922D0110922C0187EF91E017
:100BF00090932B0180932A0181E08093290108952D
:100C00001F93CF93DF9380912C0190912D0197FF3B
:100C100005C010922D0110922C0109C0883F91400F
:100C200034F087EF91E090932D0180932C01809117
:100C30002A0190912B0197FF05C010922B01109271
:100C40002A0109C0883F914034F087EF91E09093EA
:100C50002B0180932A01C0912C01D0912D01CE014E
:100C600064E570E00E94CB12162F60E070E08068AF
:100C70000E94370360E070E0812F80640E94370398
:100C800080912A0190912B018C179D0754F0FE0151
:100C9000E05DFE4F61E070E080810E9437032196A5
:100CA000EFCF87EF91E090932D0180932C0110926C
:100CB0002B0110922A0110922901DF91CF911F91EF
:100CC00008952C9A84B18D6384B92C982C9A80E570
:100CD0008CBD2A9A60E070E081E20E94370360E0F8
:100CE00070E088EC0E94370360E070E086E00E94CC
:100CF000370360E070E083E10E94370360E070E05A
:100D000080E20E94370360E070E08CE00E943703CD
:100D100088EF91E090932D0180932C0110922B018C
:100D200010922A010E9458030E94000608951F9203
:100D30000F920FB60F9211248F939F93EF93FF930F
:100D40008091B900887F803611F48AE00BC08091D1
:100D5000B900887F803881F48091BB009091A00316
:100D60009A3019F48093A00325C0E091A003F0E02D
:100D7000EB55FB4F808315C08091B900887F883B7D
:100D800009F58091BB009091A0039A3011F48093F3
:100D9000A003E091A003F0E0EC55FC4F808180932C
:100DA000BB008091A0038F5F8093A0038091A0037C
:100DB0008A3020F48091BC00856C07C08091BC0013
:100DC000856803C08091BC0085648093BC00FF915E
:100DD000EF919F918F910F900FBE0F901F901895DC
:100DE0008CE090E090932F0180932E018091000180
:100DF0008C7090E0959587959595879582309105B3
:100E000059F08330910529F0019749F465E371E0C9
:100E100008C06DE371E005C069E371E002C061E301
:100E200071E081E090E00E9473040E94000686E376
:100E300090E090932F0180932E01809100018370A8
:100E4000823051F0833029F0813049F46FE171E054
:100E500008C06BE271E005C065E271E002C069E1C3
:100E600071E081E090E00E9473040E940006089502
:100E7000809100018C70843029F0809100018C7089
:100E8000883089F458985A98599A29E989E991E063
:100E9000215080409040E1F70000599880911E0158
:100EA0008F5F80931E010895809100018C708430C3
:100EB00029F0809100018C70883089F458985998F5
:100EC0005A9A29E989E991E0215080409040E1F760
:100ED00000005A9880911E018F5F80931E01089533
:100EE000809100018C70843029F0809100018C7019
:100EF000883091F459985A98589A26E686E696E0F2
:100F0000215080409040E1F7589859985A98809124
:100F10001D018F5F80931D010895809100018370F2
:100F2000823029F0809100018370833081F488E061
:100F30005B9AEFEFF7E03197F1F700C000005B98A4
:100F40008150B1F780911C018F5F80931C0108953F
:100F5000809100018370813029F0809100018370BD
:100F6000833081F480E15B9AEFEFF7E03197F1F79E
:100F700000C000005B988150B1F780911B018F5F2A
:100F800080931B0108950F931F93E82F882309F482
:100F900078C0813009F0EDC04091260150912701C1
:100FA00020EA3FE0429FC001439F900D529F900D69
:100FB00011246DE770E00E94B712709327016093CF
:100FC000260110926E0082E085BDE0936E000E94C3
:100FD000580386E791E00E94EB050E9400060E94FC
:100FE000F0068AE590E090932F0180932E0169ED41
:100FF00070E081E090E00E9473040E9400068AE89D
:1010000090E090932F0180932E0160910A017091DE
:101010000B0180E090E00E94A0130EE914E020E0B4
:1010200030E045E050E00E949114B80181E090E08A
:101030000E9456040E9400068EEA90E090932F01D1
:1010400080932E0162ED70E081E090E00E947304D5
:101050000E9400068CEF90E090932F0180932E0168
:1010600069EC70E081E090E00E9473040E94000649
:1010700080E591E090932F0180932E0160EC70E069
:1010800072C020912601309127014DE7429FC00197
:10109000439F900D112460EA7FE00E94B712709385
:1010A00027016093260110926E0084E085BD81E0E7
:1010B00080936E000E94580386E791E00E94EB0542
:1010C0000E9400060E94F0068AE590E090932F01AE
:1010D00080932E016BEF70E081E090E00E9473043A
:1010E0000E9400068AE890E090932F0180932E01E1
:1010F00060910A0170910B0180E090E00E94A013C2
:101100000EE914E020E030E045E050E00E94911448
:10111000B80181E090E00E9456040E9400068EEA29
:1011200090E090932F0180932E0163EF70E081E0B7
:1011300090E00E9473040E9400068CEF90E0909370
:101140002F0180932E016AEE70E081E090E00E9412
:1011500073040E94000680E591E090932F01809334
:101160002E0161EE70E081E090E00E9473040E9425
:1011700000061F910F91089520911E0190911C016E
:1011800080911D018295880F807E38E0239F800D1D
:101190001124890F90911B01990F890F209125012E
:1011A0006DE70E94AB12392F280F20932501809103
:1011B000260190912701830F911D90932701809321
:1011C000260110921E0110921C0110921D01109216
:1011D0001B0108951092270110922601E09125012C
:1011E000F0E08091210190E0EE0FFF1FE255FC4FEF
:1011F00091838083E0912501F0E08091200190E0CF
:10120000EE0FFF1FE85DFC4F918380838091060104
:1012100090910701A0910801B0910901209121014D
:10122000820F911DA11DB11D8093060190930701AE
:10123000A0930801B09309018091020190910301EC
:10124000A0910401B091050120912001820F911D10
:10125000A11DB11D8093020190930301A09304018D
:10126000B09305018091060190910701A0910801BA
:10127000B09109018B2F9927AA27BB278093AD0333
:101280008091060190910701A0910801B091090198
:10129000A093AC038091060190910701A0910801F1
:1012A000B09109019093AB038091060190910701E1
:1012B000A0910801B09109018093AA0380910201D5
:1012C00090910301A0910401B09105018B2F992702
:1012D000AA27BB278093A903809102019091030163
:1012E000A0910401B0910501A093A803809102018F
:1012F00090910301A0910401B09105019093A7037F
:101300008091020190910301A0910401B091050127
:101310008093A60380910A0190910B019093A503FD
:1013200080910A0190910B018093A40380910E019A
:1013300090910F0120911F01820F911D90930F0139
:1013400080930E01809125018F5F809325010E947B
:10135000BC08109221011092200110921F0180916F
:1013600025018C3371F5E0912401F0E080910E01AC
:1013700090910F01EE0FFF1FEA5DFB4F9183808379
:1013800010920F0110920E01809124018F5F8093C3
:10139000240110922501809124018C3391F4109244
:1013A0002401809123018F5F809323018091230189
:1013B000883139F410922301809122018F5F80934C
:1013C000220108950F931F9384EA91E090932F01D7
:1013D00080932E016091220170E080E090E00E94F5
:1013E000A0130EE914E020E030E042E050E00E945B
:1013F0009114B80181E090E00E9456040E9400061A
:1014000080EB91E090932F0180932E016EE670E0C7
:1014100081E090E00E9473040E94000688EC91E055
:1014200090932F0180932E016091230170E080E062
:1014300090E00E94A01320E030E042E050E00E94E3
:101440009114B80181E090E00E9456040E940006C9
:1014500084ED91E090932F0180932E016BE670E074
:1014600081E090E00E9473040E94000680912401B4
:101470008A3090F480EE91E090932F0180932E01BA
:101480006091240170E080E090E00E94A01320E0D1
:1014900030E041E050E013C08AED91E090932F01DD
:1014A00080932E016091240170E080E090E00E9422
:1014B000A0130EE914E020E030E042E050E00E948A
:1014C0009114B80181E090E00E9456040E94000649
:1014D00086EE91E090932F0180932E0168E670E0F4
:1014E00081E090E00E9473040E9400068091250133
:1014F0008A30A0F482EF91E090932F0180932E0127
:101500006091250170E080E090E00E94A0130EE958
:1015100014E020E030E041E050E013C08CEE91E0B8
:1015200090932F0180932E016091250170E080E05F
:1015300090E00E94A0130EE914E020E030E042E0C9
:1015400050E00E949114B80181E090E00E9456049E
:101550000E9400061F910F910895A0E0B0E0E3EB18
:10156000FAE00C940B13809128018F3329F08091BD
:101570002801853109F0BCC08AE890E090932F01E2
:1015800080932E0160910A0170910B0180E090E040
:101590000E94A0130EE914E020E030E045E050E0A6
:1015A0000E949114B80181E090E00E9456040E94CC
:1015B00000068EED90E090932F0180932E01809194
:1015C000240181111DC080912301811119C08091D6
:1015D0002201811115C088ED90E090932F01809336
:1015E0002E0167E171E081E090E00E9473040E94A7
:1015F000000680912501882331F18091250123C0C7
:1016000088ED90E090932F0180932E0165E171E0C9
:1016100081E090E00E9473040E940006E0912401A2
:10162000F0E0EE0FFF1FEA5DFB4F6081718180E00B
:1016300090E00E94A0130EE914E020E030E045E0C5
:1016400050E00E9491146EE974E081E090E00E9405
:1016500056040E9400068CE291E090932F01809343
:101660002E0163E171E081E090E00E9473040E942A
:101670000006E0912501F0E0EE0FFF1FE255FC4F60
:101680006081718180E090E00E94A0130EE914E077
:1016900020E030E045E050E00E949114B80181E084
:1016A00090E00E9456040E94000680E891E090932A
:1016B0002F0180932E0161E171E081E090E00E94B2
:1016C00073040E940006E0912501F0E0EE0FFF1F79
:1016D000E85DFC4F6081718180E090E00E94A01382
:1016E00020E030E045E050E00E949114B80125C2AE
:1016F0008AE890E090932F0180932E0160910A0177
:1017000070910B0180E090E00E94A0130EE914E0BC
:1017100020E030E045E050E00E949114B80181E003
:1017200090E00E9456040E9400068EED90E0909397
:101730002F0180932E018091230181114EC0809151
:101740002401882309F449C088ED90E090932F018B
:1017500080932E016FE071E081E090E00E947304BD
:101760000E94000680E090E060E0FC01EE0FFF1FA9
:10177000EA5DFB4F20813181620F01968C33910528
:10178000A1F7C0912401D091250170E080E090E0A4
:101790000E94A01320E030E041E655E40E942E14A0
:1017A0006B017C016D2F70E08CE3C89F600D711D93
:1017B0001124882777FD8095982F0E94A2139B0102
:1017C000AC01C701B6010E9438130EE914E020E015
:1017D00030E045E050E00E94911480912401811195
:1017E0004BC080912301811147C08091220181115A
:1017F00043C088ED90E090932F0180932E016DE01F
:1018000071E081E090E00E9473040E9400068091E4
:101810002501882331F180910E0190910F01C09133
:101820002501BC0180E090E00E94A01320E030E0A0
:1018300041E655E40E942E146B017C016C2F70E090
:1018400080E090E00E94A2139B01AC01C701B601A9
:101850000E9438130EE914E020E030E045E050E04B
:1018600009C00EE914E020E030E045E050E060E01F
:1018700070E0CB010E94911480912301811104C07A
:10188000809122018823C9F188ED90E090932F0187
:1018900080932E016BE071E081E090E00E94730480
:1018A0000E94000680E090E040910C0150910D01F3
:1018B000FC01EE0FFF1FEA5DFB4F20813181240FF9
:1018C000351F30930D0120930C0101968C33910547
:1018D00059F760910C0170910D0180E090E00E9439
:1018E000A0130EE914E020E030E045E050E00E9453
:1018F000911410920D0110920C016EE974E081E0D8
:1019000090E00E9456040E94000682E391E09093CA
:101910002F0180932E01109213011092120180E08A
:1019200090E04091120150911301FC01EE0FFF1F56
:10193000E255FC4F20813181240F351F3093130174
:101940002093120101968C33910559F7809124015F
:10195000811144C080912301811140C080912201F6
:1019600081113CC08CE291E090932F0180932E0175
:1019700069E071E081E090E00E9473040E9400063B
:101980008091250181110AC00EE914E020E030E0C9
:1019900045E050E060E070E0CB013CC08091120176
:1019A00090911301C0912501BC0180E090E00E945C
:1019B000A01320E030E040E752E40E942E146B01B7
:1019C0007C016C2F70E080E090E00E94A2139B01EC
:1019D000AC01C701B6010E94381316C08CE291E039
:1019E00090932F0180932E0167E071E081E090E0F9
:1019F0000E9473040E94000660911201709113010D
:101A000080E090E00E94A0130EE914E020E030E0B6
:101A100045E050E00E9491146EE974E081E090E0AE
:101A20000E9456040E94000686E891E090932F01E0
:101A300080932E01109211011092100180E090E02D
:101A40004091100150911101FC01EE0FFF1FE85D64
:101A5000FC4F20813181240F351F309311012093D9
:101A6000100101968C33910559F780912401811161
:101A700044C080912301811140C0809122018111D5
:101A80003CC080E891E090932F0180932E0165E0A7
:101A900071E081E090E00E9473040E940006809152
:101AA000250181110AC00EE914E020E030E045E094
:101AB00050E060E070E0CB013CC08091100190915B
:101AC0001101C0912501BC0180E090E00E94A013AB
:101AD00020E030E040E752E40E942E146B017C01CC
:101AE0006C2F70E080E090E00E94A2139B01AC019B
:101AF000C701B6010E94381316C080E891E09093A8
:101B00002F0180932E0163E071E081E090E00E945C
:101B100073040E940006609110017091110180E031
:101B200090E00E94A0130EE914E020E030E045E0D0
:101B300050E00E9491146EE974E081E090E00E9410
:101B400056040E9400060E94E209CDB7DEB7E8E025
:101B50000C9427130F931F9386E0809368008FE007
:101B600080936C0080EE80936D0017B88FE388B986
:101B70000E94610681E40E9444030E9458030E946F
:101B8000000686E791E00E94EB050E9400068AE5C8
:101B900090E090932F0180932E016CE870E081E03B
:101BA00090E00E9473040E9400068AE890E09093FF
:101BB0002F0180932E0160910A0170910B0180E04A
:101BC00090E00E94A0130EE914E020E030E045E030
:101BD00050E00E949114B80181E090E00E94560408
:101BE0000E9400068EEA90E090932F0180932E01D0
:101BF00064E870E081E090E00E9473040E940006B7
:101C00008CEF90E090932F0180932E016BE770E0B2
:101C100081E090E00E9473040E94000680E591E05C
:101C200090932F0180932E0162E770E081E090E0B5
:101C30000E9473040E9400060E94AD0A1F910F913A
:101C400008950F931F9386E0809368008FE0809340
:101C50006C0080EE80936D009FE19AB917B89FE306
:101C600098B98BB98BE180930001109228011092F2
:101C70002701109226011092250110922401109242
:101C80002301109222011092210110922001109242
:101C90001F0110921E0110921D0110921C01109242
:101CA0001B01109219011092180110921701109245
:101CB0001601109215011092140110920601109253
:101CC000070110920801109209011092020110926E
:101CD0000301109204011092050180E090E09C0144
:101CE000220F331FF901E255FC4F11821082F901D6
:101CF000E85DFC4F11821082F901EA5DFB4F118211
:101D0000108201968C33910551F7109213011092B5
:101D10001201109211011092100110920F011092F5
:101D20000E0110920D0110920C0110920B011092F5
:101D30000A010E9438070E9454070E94700782E33C
:101D40008093BA0085EC8093BC000E94610681E418
:101D50000E94440378940E9458030E940006109247
:101D60002F0110922E016AE671E081E090E00E945E
:101D700073040E94000688EA90E090932F018093FC
:101D80002E0162E671E081E090E00E9473040E94FF
:101D9000000688ED90E090932F0180932E016091D2
:101DA000010170E080E090E00E94A0130EE914E0D1
:101DB00020E030E041E050E00E9491146FE571E0D6
:101DC00081E090E00E94730484EE90E090932F01F4
:101DD00080932E01B80181E090E00E9456040E9499
:101DE00000068CEF90E090932F0180932E0160E528
:101DF00071E081E090E00E9473040E94000684EA92
:101E000091E090932F0180932E0161E471E081E0D5
:101E100090E00E9473040E9400062FEF8FEF9AE477
:101E2000215080409040E1F700C000000E94AA0DC0
:101E300080E00E94C3070E94AD0A1F910F91089590
:101E40001F920F920FB60F9211242F933F934F932F
:101E50005F936F937F938F939F93AF93BF93CF9332
:101E6000EF93FF9386B1C6B1C87087708330C9F114
:101E7000853059F1811142C0809114019091150172
:101E8000019690931501809314018091180190910F
:101E90001901019690931901809318018091160100
:101EA00090911701019690931701809316018091EC
:101EB0000A0190910B01019690930B0180930A0106
:101EC0000E9470070E94A80719C080911801909184
:101ED0001901019690931901809318010E94380707
:101EE0000BC08091160190911701019690931701F4
:101EF000809316010E9454070E948D07C11102C0F1
:101F00000E94210EFF91EF91CF91BF91AF919F91D0
:101F10008F917F916F915F914F913F912F910F9092
:101F20000FBE0F901F901895A0E0B0E0EAE9FFE027
:101F30000C940B138AE890E090932F0180932E016C
:101F400060910A0170910B0180E090E00E94A01363
:101F50000EE914E020E030E045E050E00E949114EA
:101F6000B80181E090E00E9456040E9400068EEDC8
:101F700090E090932F0180932E0180912301811195
:101F80004EC080912401882309F449C088ED90E077
:101F900090932F0180932E016EEB70E081E090E032
:101FA0000E9473040E94000680E090E060E0FC0163
:101FB000EE0FFF1FEA5DFB4F20813181620F01961A
:101FC0008C339105A1F7C0912401D091250170E0D7
:101FD00080E090E00E94A01320E030E041E655E46C
:101FE0000E942E146B017C016D2F70E08CE3C89F62
:101FF000600D711D1124882777FD8095982F0E9410
:10200000A2139B01AC01C701B6010E9438130EE96F
:1020100014E020E030E045E050E00E94911480910F
:10202000240181114BC080912301811147C080910F
:102030002201811143C088ED90E090932F0180939D
:102040002E016CEB70E081E090E00E9473040E942E
:10205000000680912501882331F180910E01909135
:102060000F01C0912501BC0180E090E00E94A01307
:1020700020E030E041E655E40E942E146B017C0123
:102080006C2F70E080E090E00E94A2139B01AC01F5
:10209000C701B6010E9438130EE914E020E030E0D9
:1020A00045E050E009C00EE914E020E030E045E0F2
:1020B00050E060E070E0CB010E9491148091230118
:1020C000811104C0809122018823C9F188ED90E03C
:1020D00090932F0180932E016AEB70E081E090E0F5
:1020E0000E9473040E94000680E090E040910C0181
:1020F00050910D01FC01EE0FFF1FEA5DFB4F2081A7
:102100003181240F351F30930D0120930C0101966E
:102110008C33910559F760910C0170910D0180E0AD
:1021200090E00E94A0130EE914E020E030E045E0CA
:1021300050E00E94911410920D0110920C016EE972
:1021400074E081E090E00E9456040E9400068CE258
:1021500091E090932F0180932E0168EB70E081E075
:1021600090E00E9473040E94000660910601709145
:10217000070180910801909109010E94A0130EE9C6
:1021800014E020E030E045E050E00E949114B801F6
:1021900081E090E00E9456040E94000680E891E0F1
:1021A00090932F0180932E0166EB70E081E090E028
:1021B0000E9473040E940006609102017091030165
:1021C00080910401909105010E94A01320E030E06D
:1021D00045E050E00E949114B80181E090E00E9437
:1021E00056040E9400060E94E209CDB7DEB7E8E07F
:1021F0000C9427131F920F920FB60F9211242F9356
:102200003F934F935F936F937F938F939F93AF937E
:10221000BF93EF93FF938091260190912701019640
:10222000909327018093260120912101809118012C
:1022300090911901280F2093210120912001809174
:10224000160190911701280F2093200120911F0162
:102250008091140190911501280F20931F01109275
:102260001901109218011092170110921601109284
:10227000150110921401809128018F3321F0809173
:102280002801853161F48091260190912701803ADF
:102290009F4019F50E94EA080E94AD0A1EC0809175
:1022A000280181110BC080912601909127018D3763
:1022B000910521F40E94EA080E94AD0A809128014C
:1022C000803459F480912601909127018D37910532
:1022D00021F40E94EA080E94940FFF91EF91BF91B0
:1022E000AF919F918F917F916F915F914F913F91AE
:1022F0002F910F900FBE0F901F9018950F931F9363
:1023000086E0809368008FE080936C0080EE80937D
:102310006D0017B88FE388B90E94610681E40E94BE
:1023200044030E9458030E94000686E791E00E9441
:10233000EB050E9400068AE590E090932F018093C0
:102340002E016EEA70E081E090E00E9473040E942A
:1023500000068AE890E090932F0180932E0160910F
:102360000A0170910B0180E090E00E94A0130EE939
:1023700014E020E030E045E050E00E949114B80104
:1023800081E090E00E9456040E9400068EEA90E0F0
:1023900090932F0180932E0166EA70E081E090E037
:1023A0000E9473040E9400068CEF90E090932F012E
:1023B00080932E016DE970E081E090E00E9473044B
:1023C0000E94000680E591E090932F0180932E01FA
:1023D00064E970E081E090E00E9473040E940006CE
:1023E0000E94940F1F910F9108951F920F920FB6A4
:1023F0000F9211242F933F934F935F936F937F938B
:102400008F939F93AF93BF93CF93EF93FF938FEFF0
:102410009FE30197F1F700C0000080911C018F5FDE
:1024200080931C01C9B10E94AD0A809100012091E6
:1024300000019C2F9295969597709530B9F0963043
:1024400081F1933009F057C080912801882341F031
:10245000803409F050C0109228010E94AA0D49C092
:1024600080E4809328010E947E1143C0822F8370F4
:10247000823069F0833059F0813069F48091000135
:102480008E7F8093000180910001826007C080915F
:1024900000018D7F03C08091000183608093000163
:1024A00028C08C7090E0959587959595879582309A
:1024B000910591F08330910559F00197A1F4809135
:1024C00000018B7F8093000180910001886007C02C
:1024D00080910001877F0AC080910001877F8093EF
:1024E00000015C9806C08091000184608093000127
:1024F0005C9A0E94F006FF91EF91CF91BF91AF914E
:102500009F918F917F916F915F914F913F912F910B
:102510000F900FBE0F901F90189501979C0140E0FF
:1025200050E060E070ED87E090E00E94DF12832FC2
:1025300099278093C5002093C400E1ECF0E08081EE
:1025400088698083E2ECF0E080818E60808308956A
:102550000E94210EFFCF991B79E004C0991F9617A6
:1025600008F0961B881F7A95C9F780950895AA1BD5
:10257000BB1B51E107C0AA1FBB1FA617B70710F06E
:10258000A61BB70B881F991F5A95A9F780959095A0
:10259000BC01CD01089597FB072E16F4009407D0D7
:1025A00077FD09D00E94B71207FC05D03EF4909544
:1025B00081959F4F0895709561957F4F0895A1E291
:1025C0001A2EAA1BBB1BFD010DC0AA1FBB1FEE1FAD
:1025D000FF1FA217B307E407F50720F0A21BB30BF8
:1025E000E40BF50B661F771F881F991F1A9469F774
:1025F00060957095809590959B01AC01BD01CF01D0
:1026000008952F923F924F925F926F927F928F9296
:102610009F92AF92BF92CF92DF92EF92FF920F9371
:102620001F93CF93DF93CDB7DEB7CA1BDB0B0FB67B
:10263000F894DEBF0FBECDBF09942A883988488838
:102640005F846E847D848C849B84AA84B984C884CE
:10265000DF80EE80FD800C811B81AA81B981CE0FC5
:10266000D11D0FB6F894DEBF0FBECDBFED010895AA
:102670000CD0BAC0B2D040F0A9D030F021F45F3F06
:1026800019F09BC05111E4C09EC0BFD098F39923AC
:10269000C9F35523B1F3951B550BBB27AA27621726
:1026A0007307840738F09F5F5F4F220F331F441F6B
:1026B000AA1FA9F333D00E2E3AF0E0E830D09150A3
:1026C0005040E695001CCAF729D0FE2F27D0660F90
:1026D000771F881FBB1F261737074807AB07B0E8CF
:1026E00009F0BB0B802DBF01FF2793585F4F2AF0E5
:1026F0009E3F510568F061C0ABC05F3FECF3983E70
:10270000DCF3869577956795B795F7959F5FC9F741
:10271000880F911D9695879597F90895E1E0660FCA
:10272000771F881FBB1F621773078407BA0720F043
:10273000621B730B840BBA0BEE1F88F7E0950895AC
:10274000E89409C097FB3EF490958095709561954B
:102750007F4F8F4F9F4F9923A9F0F92F96E9BB2701
:102760009395F695879577956795B795F111F8CF7D
:10277000FAF4BB0F11F460FF1BC06F5F7F4F8F4FE8
:102780009F4F16C0882311F096E911C0772321F0DE
:102790009EE8872F762F05C0662371F096E8862F76
:1027A00070E060E02AF09A95660F771F881FDAF7CD
:1027B000880F9695879597F9089597F99F6780E810
:1027C00070E060E008959FEF80EC089500240A9483
:1027D0001616170618060906089500240A941216FC
:1027E0001306140605060895092E0394000C11F42F
:1027F000882352F0BB0F40F4BF2B11F460FF04C0DC
:102800006F5F7F4F8F4F9F4F089557FD9058440F34
:10281000551F59F05F3F71F04795880F97FB991F3F
:1028200061F09F3F79F087950895121613061406FC
:10283000551FF2CF4695F1DF08C016161706180689
:10284000991FF1CF86957105610508940895E89464
:10285000BB2766277727CB0197F908950BD0C4CF04
:10286000B5DF28F0BADF18F0952309F0A6CFABCF7B
:102870001124EECFCADFA0F3959FD1F3950F50E05E
:10288000551F629FF001729FBB27F00DB11D639F22
:10289000AA27F00DB11DAA1F649F6627B00DA11DC8
:1028A000661F829F2227B00DA11D621F739FB00D6E
:1028B000A11D621F839FA00D611D221F749F3327DE
:1028C000A00D611D231F849F600D211D822F762F77
:1028D0006A2F11249F5750408AF0E1F088234AF074
:1028E000EE0FFF1FBB1F661F771F881F91505040C0
:1028F000A9F79E3F510570F060CFAACF5F3FECF380
:10290000983EDCF3869577956795B795F795E795AB
:102910009F5FC1F7FE2B880F911D9695879597F9BC
:102920000895EF920F931F93CF93DF93E80147FF32
:1029300002C034E101C034E0E42FFF27E7FDF09549
:10294000F7FF03C0F195E195F109E32E022F2E2F39
:10295000AE010E94BB14CE01DF91CF911F910F9168
:10296000EF900895FB01DC0102C005900D924150EB
:102970005040D8F708956F927F929F92AF92BF9286
:10298000CF92DF92EF92FF920F931F93CF93DF933B
:10299000CDB7DEB729970FB6F894DEBF0FBECDBF17
:1029A0006A01B22E102F0C3320F4FF24F394F00EA2
:1029B00002C04CE3F42E0F2D27E0AE014F5F5F4FB6
:1029C0000E9439167981272F2970213031F0E1FCDE
:1029D00006C0E0FC06C060E005C06DE203C06BE22B
:1029E00001C060E2AE2DA07173FF36C0662311F006
:1029F00084E001C083E08B1510F4B81A01C0B12C3B
:102A0000A1110BC0F6018B2D90E2882319F0919350
:102A10008150FBCFCB0CD11CB12C662331F0F601D9
:102A2000608396012F5F3F4F6901C6010396E2FE66
:102A300005C02EE4F601208331E404C02EE6F60141
:102A4000208331E631832283FC012B2D30E22223C7
:102A5000F1F131932150FBCF72FF40C0662311F09A
:102A600084E001C083E08B1510F4B81A01C0B12CCA
:102A7000A1110BC0F6018B2D90E2882319F09193E0
:102A80008150FBCFCB0CD11CB12C662331F0F60169
:102A9000608396012F5F3F4F6901C6010396E2FEF6
:102AA00007C029E4F60120832EE4218326E406C032
:102AB00029E6F60120832EE6218326E62283FC0107
:102AC0002B2D30E2222319F031932150FBCFFC0152
:102AD000EB0DF11D10828EEF9FEFB7C0B1E06111D9
:102AE00001C0B0E04B2F50E01816190624F49C01E9
:102AF0002F5F3F4F02C021E030E0240F351F11232C
:102B000029F0412F50E04F5F5F4F02C040E050E09E
:102B1000420F531F2B2D30E04217530714F4B41A01
:102B200001C0B12C2E2D287159F4F6012B2D30E265
:102B3000222319F031932150FBCFCB0CD11CB12CA7
:102B4000BB2331F0F601608396012F5F3F4F69018F
:102B5000A1110BC0F6012B2D30E3222319F0319384
:102B60002150FBCFCB0CD11CB12CF80E0A81372F92
:102B70003071A32E74FF03C0013309F4FA941F14BB
:102B80002CF42F2D293018F028E001C021E0682F07
:102B9000392F97FF02C060E030E0462F532F612CA1
:102BA000712C3EE2932EBC01621B71099B01DC017A
:102BB000A41BB50BE1E0F0E0EC0FFD1FAE0FBF1F53
:102BC000E12EF12CF194E194F1084F3FFFEF5F0704
:102BD00031F4F6019082B6016F5F7F4F6B0184176D
:102BE00095074CF02417350734F4BD01660D771DA9
:102BF000FB01118101C010E341505109FFEF6F1A31
:102C00007F0AB6016F5F7F4F4E155F0524F0F60116
:102C100010836B01DACF4817590739F4063320F4D3
:102C2000053319F4A11001C011E3F6011083FB0173
:102C30008B2D90E2882319F091938150FBCFFB01FB
:102C4000EB0DF11D108280E090E029960FB6F8940C
:102C5000DEBF0FBECDBFDF91CF911F910F91FF90CF
:102C6000EF90DF90CF90BF90AF909F907F906F904C
:102C70000895283008F027E03327DA01990F311D35
:102C800087FD916000966105710539F432602E5F11
:102C90003D9330E32A95E1F708959F3F30F0803867
:102CA0007105610509F03C5F3C5F3D93913008F090
:102CB0008068911DDF93CF931F930F93FF92EF9244
:102CC000192F987F9695E92F96959695E90FFF27EE
:102CD000E157FA4F99273327EE24FF24A701E70194
:102CE00005900894079428F4360FE71EF81E491F34
:102CF000511D660F771F881F991F0694A1F7059035
:102D0000079428F4E70EF81E491F561FC11D770FC0
:102D1000881F991F661F0694A1F70590079428F451
:102D2000F80E491F561FC71FD11D880F991F661F18
:102D3000771F0694A1F70590079420F4490F561FBA
:102D4000C71FD81F990F661F771F881F0694A9F702
:102D500084911095177041F0D695C7955795479572
:102D6000F794E7941A95C1F7E5E3F5E068941590B8
:102D7000159135916591959105907FE27395E118D4
:102D8000F10A430B560BC90BD009C0F7E10CF11E39
:102D9000431F561FC91FD01D7EF4703311F48A954E
:102DA000E6CFE894015030F0080F0AF4002702172C
:102DB00008F4202F2395022F7A3328F079E37D93AE
:102DC0002A95E9F710C07D932A9589F60694979580
:102DD0006795379517951794E118F10A430B560B31
:102DE000C90BD00998F023957E9173957A3308F03A
:102DF00070E37C932013B8F77E9170617D9330F07F
:102E0000839571E37D9370E32A95E1F71124EF90A8
:102E1000FF900F911F91CF91DF91992787FD90959A
:062E20000895F894FFCFB5
:022E26001B137C
:00000001FF
