:100000000C9402030C941F030C941F030C941F0305
:100010000C94AE0F0C94580B0C941F030C941F03FC
:100020000C941F030C941F030C941F030C941F03C8
:100030000C941F030C941F030C941F030C941F03B8
:100040000C94740D0C941F030C941F030C941F0349
:100050000C941F030C941F030C941F030C941F0398
:100060000C9489030C941F03474D322F7365633A38
:1000700000474D312F7365633A00202F6D696E3A4A
:100080000020746F74616C3A00474D322F6D696EB9
:100090003A00474D312F6D696E3A00202F686F7519
:1000A000723A0020746F74616C3A003A30003A3052
:1000B000006461790020002A0020002A0020002A24
:1000C000002A002000200020002A004F4646202061
:1000D000004D5520202000474D202020004D552068
:1000E000474D004F4646004F4E20004C4544004FC0
:1000F000464600474D322F6D696E3A00474D312F0D
:100100006D696E3A00202F686F75723A0020746F27
:1001100074616C3A006D756F6E68756E7465722EE1
:10012000636F6D004669726D776172653A20763053
:100130002E310030300073657269616C3A004D7584
:100140006F6E2048756E746572001092441028100E
:1001500044921000000000000000000000000000B9
:10016000000000000000000000000000000000008F
:100170000000000000383844822810443800000095
:10018000000000000000000000000000000000006F
:100190000000000000000000000000000000FE045D
:1001A00008041E0000000000000000000000000025
:1001B000000000000000000000000000000000003F
:1001C000000000000000000000000000000000002F
:1001D000000000000000000000000000000000001F
:1001E000000000000000000000000000000000000F
:1001F0000000FE0408041E000000000000000000D3
:1002000000000000000000000000000000000000EE
:1002100000000000000000000000000000000000DE
:1002200000000000000000000000000000000000CE
:1002300000000000000000000000000000000000BE
:1002400000000000000000000000000000000000AE
:10025000000000000000000000000000000000009E
:10026000000000000000000000000000000000008E
:10027000000000000000000000000000000000007E
:10028000000000000000000000000000000000006E
:10029000000000000000000000000000000000005E
:1002A000000000000000000000000000000000004E
:1002B000000000000000000000000000000000003E
:1002C000000000000000000000000000000000002E
:1002D000000000000000000000000000000000001E
:1002E000000000000000000000000000000000000E
:1002F00000000000000000000000000000000000FE
:1003000000000000000000000000000000000000ED
:1003100000000000000000000000000000000000DD
:1003200000000000000000000000000000000000CD
:1003300000000000000000000000000000000000BD
:100340000000000000000000002F00000007000770
:1003500000147F147F14242A7F2A12C4C810264652
:1003600036495522500005030000001C22410000C0
:1003700041221C0014083E081408083E080800002A
:1003800050300010101010100060600000201008A5
:1003900004023E5149453E00427F400042615149BE
:1003A000462141454B311814127F102745454539E8
:1003B0003C4A494930017109050336494949360625
:1003C0004949291E00363600000056360000081440
:1003D0002241001414141414004122140802015183
:1003E0000906324959513E7E1111117E7F49494912
:1003F000363E414141227F4141221C7F49494941CA
:100400007F090909013E4149497A7F0808087F00B0
:10041000417F41002040413F017F081422417F403D
:100420004040407F020C027F7F0408107F3E414124
:10043000413E7F090909063E4151215E7F09192984
:1004400046464949493101017F01013F4040403F53
:100450001F2040201F3F4038403F631408146307AB
:10046000087008076151494543007F414100552A02
:10047000552A550041417F000402010204404040DA
:100480004040000102040020545454787F48444402
:10049000383844444420384444487F38545454182D
:1004A000087E0901020C5252523E7F080404780073
:1004B000447D40002040443D007F1028440000411E
:1004C0007F40007C041804787C0804047838444495
:1004D00044387C14141408081414187C7C08040490
:1004E000084854545420043F4440203C4040207C61
:1004F0001C2040201C3C4030403C44281028440C28
:100500005050503C4464544C4400407A10F35A001C
:10051000A0724E18090010A5D4E80000E87648172C
:100520000000E40B54020000CA9A3B000000E1F511
:1005300005000080969800000040420F000000A0D7
:100540008601000000102700000000E80300000002
:10055000006400000000000A00000000000100002C
:100560000000002C76D888DC674F0823DFC1DFAE9F
:1005700059E1B1B796E5E3E453C63AE65199769668
:10058000E8E6C28426EB898C9B62ED407C6FFCEF31
:10059000BC9C9F40F2BAA56FA5F490055A2AF75C5F
:1005A000936B6CF9676DC11BFCE0E40D47FEF52011
:1005B000E6B500D0ED902E030094357705008084D9
:1005C0001E080000204E0A000000C80C33333333ED
:1005D0000F986E12831141EF8D2114893BE6551659
:1005E000CFFEE6DB18D1844B381BF77C1D901DA491
:1005F000BBE424203284725E228100C9F124ECA184
:10060000E53D270011241FBECFEFD4E0DEBFCDBFF4
:1006100011E0A0E0B1E0E2EBF8E202C005900D923B
:10062000A830B107D9F724E0A8E0B1E001C01D92DD
:10063000AC39B207E1F70E9410100C9457140C94D7
:1006400000002A986130710511F4289A01C0289899
:100650008EBD0DB407FEFDCF2A9A089582E08093E7
:10066000B8008FEF8093BB0084E08093BC000895B6
:100670008091BC00817008958091BC0080FDFCCF0A
:100680008091060108952091BC0020FDFCCF60936D
:100690002803FC0120812093290320FF09C0109228
:1006A000270188EF8093060185EA8093BC000895B6
:1006B000DC011196EAE2F3E081E08E1B982F9E0F99
:1006C000961768F79D919193F9CF8091BC0080FDBA
:1006D000FCCF1092270188EF8093060185EA809372
:1006E000BC0008952091BC0020FDFCCF2091270183
:1006F00020FD04C0809127018170089529E233E034
:10070000FC01D9018A2F821B8617A0F78D91819356
:10071000F9CF1F920F920FB60F9211242F933F9390
:100720008F939F93EF93FF938091B900883201F1EB
:1007300040F48031D9F08831D9F0883009F04AC0CE
:1007400015C0803491F128F4883309F043C085EA5C
:1007500046C08035F1F08835E9F58091BB00E09125
:100760002801F0E0E75DFC4F80832DC01092280146
:10077000E091280180912803E81728F581E08E0F89
:1007800080932801F0E0E75DFC4F80818093BB00FF
:1007900018C0E091280181E08E0F8093280180919C
:1007A000BB00F0E0E75DFC4F80832091280130E042
:1007B0008091280390E001972817390714F485ECFD
:1007C0000EC085E80CC080912701816080932701CD
:1007D00084E905C08091B9008093060184E080938C
:1007E000BC00FF91EF919F918F913F912F910F90BE
:1007F0000FBE0F901F901895CF93C82F60E070E048
:1008000081E20E94210360E070E08C2F80680E94EA
:10081000210360E070E080E20E942103CF910895FF
:1008200088EF91E0E0E3F1E0DF019C011D922150AF
:100830003040E1F710922D0110922C0187EF91E0EA
:1008400090932B0180932A0181E0809329010895E0
:100850008F30D8F46730C8F490E0019746E0489FA5
:100860009001499F300D112470E06150710944E5F9
:10087000469FC001479F900D1124280F391F3093C8
:100880002F0120932E0180E0089581E008951F93A9
:10089000CF93DF9320912E0130912F0140912C01B5
:1008A00050912D012417350724F430932D01209306
:1008B0002C0140EE460F4C3508F06CE58130910577
:1008C000C9F4C9012B5F3F4F45E0649FB00111247B
:1008D000681B790B6E557D4FFB01E80FF91FE49102
:1008E000DC01A05DBE4FEE0FEC93019682179307DB
:1008F00099F767C0029709F068C0C901845591094A
:1009000040912C0150912D018417950724F4909368
:100910002D0180932C0197FD7CC0AC0185E0689F80
:10092000B001112480E090E06E557D4F1CE0D8E1CD
:10093000FB01E80FF91FE491EE0FAE2FA470A19F09
:10094000A02D1124BE2FB270FB2FFF0FFB0FFF0F46
:10095000AF2BFE2FF870FD9FF02D1124AF2BE295E9
:10096000EF70FE2FF270CF2FCC0FCF0FCC0FBE2F1A
:10097000B170FB2FFF0FFB0FCF2BFE2FF470F19FF9
:10098000F02D1124CF2BE870ED9FE02D1124CE2BFC
:10099000FA01E05DFE4FA083A183DF01AC5ABF4F97
:1009A000CC93EB5AFF4FC08301964E5F5F4F85306B
:1009B000910509F0BDCFC9010B9668EF71E00E9467
:1009C000331090932F0180932E0180912E019091EE
:1009D0002F0120912A0130912B012817390724F487
:1009E00090932B0180932A01FC01E05DFE4F108261
:1009F000873F21E0920731F410922F0110922E01CF
:100A000082E008C0019690932F0180932E0180E030
:100A100001C081E0DF91CF911F910895FF920F9364
:100A20001F93CF93DF93EC018B01F12CF801EF0DB5
:100A3000F11D6081662339F0CE010E9447048130A8
:100A400021F0F394F3CF80E001C081E0CDB7DEB7B1
:100A5000E5E00C9470100F931F93CF93DF938C01FC
:100A6000EB01FE016491662339F0C8010E9447043E
:100A7000813021F02196F5CF80E001C081E0DF9147
:100A8000CF911F910F910895853508F04FC06133C4
:100A900008F04CC0262F26952695269590E034E543
:100AA000239F800D911D112438EF239F600D112489
:100AB000FC01E05DFE4F70814115510551F421E0CC
:100AC00030E0062E01C0220F0A94EAF72095722327
:100AD00015C04130510539F4062E01C0440F0A9467
:100AE000EAF7742B0BC04230510541F421E030E0AD
:100AF000062E01C0220F0A94EAF772277083209114
:100B00002C0130912D018217930720F490932D0131
:100B100080932C0120912A0130912B01281739074D
:100B200038F490932B0180932A0102C081E008954C
:100B300080E00895A0E0B0E0E0EAF5E00C944B100E
:100B4000A82ED62EB42E722EC22FD0E0C41BD109EF
:100B5000E62EF12CE81AF108D7FF06C0D195C19511
:100B6000D10988248A9402C088248394F7FE06C0A1
:100B7000F194E194F10899249A9402C099249394F1
:100B8000A8016B2D8A2D0E94440581113BC0EE0CFB
:100B9000FF1CCC0FDD1FCE15DF05C4F4C7019595F2
:100BA00087953E01681A790AAD14C1F077FC03C03D
:100BB000B80C6E187F08A90C6C0E7D1EA8016B2D59
:100BC0008A2D0E944405882379F31CC0CE01959597
:100BD00087956701C81AD90AB71005C081E08093CC
:100BE000290180E00FC0D7FC03C0A90CCC1ADD0A94
:100BF000B80CCE0CDF1CA8016B2D8A2D0E94440579
:100C0000882351F3CDB7DEB7EEE00C946710A0E077
:100C1000B0E0EDE0F6E00C945110C82EE62E84E52D
:100C20008C1528F180E3861710F1641718F0F62E62
:100C3000F41A01C0F12CC22FD0E0CC0DD11DFE144E
:100C400088F4DC2C2D2D30E02C173D074CF4A80146
:100C50006F2D8D2D0E94440581110AC0D394F2CFCF
:100C6000F394EDCF81E08093290180E001C081E021
:100C7000CDB7DEB7E8E00C946D10A0E0B0E0E3E49F
:100C8000F6E00C944F10D62EE42EA22E62E0B62E83
:100C9000B40EC82EEC0175E0F72E80E09C2F9C1955
:100CA0009D15B0F4853510F081E016C049914A9D3C
:100CB000402D112401E010E02E2D66E28F2D0E94C0
:100CC00007069F2D9B0D813079F38F2DF92EE6CFEE
:100CD00081E08093290180E0CDB7DEB7EAE00C9493
:100CE0006B10A1E0B0E0E7E7F6E00C945110F82EAD
:100CF000E62ED42E84E58F15F8F08617E8F0E0E3B1
:100D0000E417D0F02133C0F4F616C0F44217B0F463
:100D1000CF2CA8016D2D8C2D29830E94440529819B
:100D200081110DC0C394CE10F4CFD394D212F0CF62
:100D300081E08093290102C081E001C080E021961A
:100D4000E8E00C946D1048EF51E0BC0180E391E0C5
:100D50000E94F81110922D0110922C0187EF91E062
:100D600090932B0180932A0181E0809329010895BB
:100D70001F93CF93DF9380912C0190912D0197FFCA
:100D800005C010922D0110922C0109C0883F91409E
:100D900034F087EF91E090932D0180932C018091A6
:100DA0002A0190912B0197FF05C010922B01109200
:100DB0002A0109C0883F914034F087EF91E0909379
:100DC0002B0180932A01C0912C01D0912D01CE01DD
:100DD00064E570E00E943310162F60E070E08068D8
:100DE0000E94210360E070E0812F80640E94210353
:100DF00080912A0190912B018C179D0754F0FE01E0
:100E0000E05DFE4F61E070E080810E942103219649
:100E1000EFCF87EF91E090932D0180932C011092FA
:100E20002B0110922A0110922901DF91CF911F917D
:100E300008952C9A84B18D6384B92C982C9A80E5FE
:100E40008CBD2A9A60E070E081E20E94210360E09C
:100E500070E088EC0E94210360E070E086E00E9470
:100E6000210360E070E083E10E94210360E070E014
:100E700080E20E94210360E070E08CE00E94210388
:100E800088EF91E090932D0180932C0110922B011B
:100E900010922A010E9410040E94B80608958CE066
:100EA00090E090932F0180932E01809104018C702B
:100EB00090E095958795959587958230910559F0A5
:100EC0008330910529F0019749F467EE70E008C07E
:100ED0006FEE70E005C06BEE70E002C063EE70E094
:100EE00081E090E00E942B050E94B80686E390E026
:100EF00090932F0180932E018091040183708230A2
:100F000051F0833029F0813049F461ED70E008C080
:100F10006DED70E005C067ED70E002C06BEC70E055
:100F200081E090E00E942B050E94B8060895A0E0A1
:100F3000B0E0EDE9F7E00C945110809126018F3379
:100F400029F080912601853109F0BCC08AE890E043
:100F500090932F0180932E016091090170910A01F5
:100F600080E090E00E94E61005E914E020E030E027
:100F700045E050E00E94D711B80181E090E00E9466
:100F80000E050E94B8068EED90E090932F0180939D
:100F90002E018091220181111DC0809121018111BA
:100FA00019C080912001811115C088ED90E09093C7
:100FB0002F0180932E0169EC70E081E090E00E94A7
:100FC0002B050E94B80680912301882331F180917E
:100FD000230123C088ED90E090932F0180932E0190
:100FE00067EC70E081E090E00E942B050E94B8065B
:100FF000E0912201F0E0EE0FFF1FE35EFB4F608106
:10100000718180E090E00E94E61005E914E020E0A4
:1010100030E045E050E00E94D71165E974E081E0DE
:1010200090E00E940E050E94B8068CE291E0909339
:101030002F0180932E0165EC70E081E090E00E942A
:101040002B050E94B806E0912301F0E0EE0FFF1F90
:10105000EB55FC4F6081718180E090E00E94E610CA
:1010600005E914E020E030E045E050E00E94D711AF
:10107000B80181E090E00E940E050E94B80680E869
:1010800091E090932F0180932E0163EC70E081E05A
:1010900090E00E942B050E94B806E0912301F0E049
:1010A000EE0FFF1FE35DFC4F6081718180E090E0F7
:1010B0000E94E61020E030E045E050E00E94D711A9
:1010C000B80125C28AE890E090932F0180932E0109
:1010D0006091090170910A0180E090E00E94E610A1
:1010E00005E914E020E030E045E050E00E94D7112F
:1010F000B80181E090E00E940E050E94B8068EEDD6
:1011000090E090932F0180932E0180912101811115
:101110004EC080912201882309F449C088ED90E0F7
:1011200090932F0180932E0161EC70E081E090E0BC
:101130000E942B050E94B80680E090E060E0FC0170
:10114000EE0FFF1FE35EFB4F20813181620F01969E
:101150008C339105A1F7C0912201D091230170E059
:1011600080E090E00E94E61020E030E041E655E4A7
:101170000E9474116B017C016D2F70E08CE3C89F9D
:10118000600D711D1124882777FD8095982F0E948E
:10119000E8109B01AC01C701B6010E947E1005E971
:1011A00014E020E030E045E050E00E94D71180914B
:1011B000220181114BC080912101811147C0809192
:1011C0002001811143C088ED90E090932F0180931E
:1011D0002E016FEB70E081E090E00E942B050E94F1
:1011E000B80680912301882331F180910D019091FF
:1011F0000E01C0912301BC0180E090E00E94E61046
:1012000020E030E041E655E40E9474116B017C015E
:101210006C2F70E080E090E00E94E8109B01AC0130
:10122000C701B6010E947E1005E914E020E030E01D
:1012300045E050E009C005E914E020E030E045E079
:1012400050E060E070E0CB010E94D7118091210155
:10125000811104C0809120018823C9F188ED90E0BC
:1012600090932F0180932E016DEB70E081E090E070
:101270000E942B050E94B80680E090E040910B018F
:1012800050910C01FC01EE0FFF1FE35EFB4F20812C
:101290003181240F351F30930C0120930B010196EF
:1012A0008C33910559F760910B0170910C0180E02E
:1012B00090E00E94E61005E914E020E030E045E00F
:1012C00050E00E94D71110920C0110920B0165E9B9
:1012D00074E081E090E00E940E050E94B80682E36F
:1012E00091E090932F0180932E01109212011092A1
:1012F000110180E090E04091110150911201FC0138
:10130000EE0FFF1FEB55FC4F20813181240F351F5D
:10131000309312012093110101968C33910559F7F6
:1013200080912201811144C080912101811140C02E
:101330008091200181113CC08CE291E090932F01BB
:1013400080932E016BEB70E081E090E00E942B0512
:101350000E94B8068091230181110AC005E914E0BA
:1013600020E030E045E050E060E070E0CB013CC0C0
:101370008091110190911201C0912301BC0180E084
:1013800090E00E94E61020E030E040E752E40E9446
:1013900074116B017C016C2F70E080E090E00E9482
:1013A000E8109B01AC01C701B6010E947E1016C077
:1013B0008CE291E090932F0180932E0169EB70E015
:1013C00081E090E00E942B050E94B8066091110117
:1013D0007091120180E090E00E94E61005E914E0AF
:1013E00020E030E045E050E00E94D71165E974E06C
:1013F00081E090E00E940E050E94B80686E891E028
:1014000090932F0180932E011092100110920F01E2
:1014100080E090E040910F0150911001FC01EE0F2F
:10142000FF1FE35DFC4F20813181240F351F309376
:10143000100120930F0101968C33910559F780918B
:101440002201811144C080912101811140C080910D
:10145000200181113CC080E891E090932F0180939E
:101460002E0167EB70E081E090E00E942B050E9466
:10147000B8068091230181110AC005E914E020E03B
:1014800030E045E050E060E070E0CB013CC080918E
:101490000F0190911001C0912301BC0180E090E008
:1014A0000E94E61020E030E040E752E40E94741110
:1014B0006B017C016C2F70E080E090E00E94E810EE
:1014C0009B01AC01C701B6010E947E1016C080E8E6
:1014D00091E090932F0180932E0165EB70E081E005
:1014E00090E00E942B050E94B80660910F01709158
:1014F000100180E090E00E94E61005E914E020E091
:1015000030E045E050E00E94D71165E974E081E0E9
:1015100090E00E940E050E94B80684EA91E0909344
:101520002F0180932E016091200170E080E090E017
:101530000E94E61005E914E020E030E042E050E0CF
:101540000E94D711B80181E090E00E940E050E9430
:10155000B80680EB91E090932F0180932E0161EB10
:1015600070E081E090E00E942B050E94B80688ECB4
:1015700091E090932F0180932E016091210170E002
:1015800080E090E00E94E61020E030E042E050E091
:101590000E94D711B80181E090E00E940E050E94E0
:1015A000B80684ED91E090932F0180932E016EEAAE
:1015B00070E081E090E00E942B050E94B8068091C7
:1015C00022018A3090F480EE91E090932F01809375
:1015D0002E016091220170E080E090E00E94E61010
:1015E00020E030E041E050E013C08AED91E09093BC
:1015F0002F0180932E016091220170E080E090E045
:101600000E94E61005E914E020E030E042E050E0FE
:101610000E94D711B80181E090E00E940E050E945F
:10162000B80686EE91E090932F0180932E016BEA2D
:1016300070E081E090E00E942B050E94B806809146
:1016400023018A30A0F482EF91E090932F018093E0
:101650002E016091230170E080E090E00E94E6108E
:1016600005E914E020E030E041E050E013C08CEEEA
:1016700091E090932F0180932E016091230170E0FF
:1016800080E090E00E94E61005E914E020E030E000
:1016900042E050E00E94D711B80181E090E00E9442
:1016A0000E050E94B806CDB7DEB7E8E00C946D10C9
:1016B0001F920F920FB60F9211242F933F934F93C7
:1016C0005F936F937F938F939F93AF93BF93CF93CA
:1016D000EF93FF938FEF9FE30197F1F700C00000B6
:1016E00080911A018F5F80931A01C9B10E949707F8
:1016F00080910401209104019C2F929596959770FA
:10170000953061F0963029F1933009F04CC080910A
:101710002601811148C01092260145C0822F837096
:10172000823069F0833059F0813069F4809104018E
:101730008E7F8093040180910401826007C08091B4
:1017400004018D7F03C080910401836080930401B4
:1017500028C08C7090E095958795959587958230F7
:10176000910591F08330910559F00197A1F4809192
:1017700004018B7F8093040180910401886007C07D
:1017800080910401877F0AC080910401877F809344
:1017900004015C9806C08091040184608093040178
:1017A0005C9A0E944F07FF91EF91CF91BF91AF914B
:1017B0009F918F917F916F915F914F913F912F9169
:1017C0000F900FBE0F901F9018950F931F93E82F47
:1017D000882309F478C0813009F0EDC040912401DC
:1017E0005091250120EA3FE0429FC001439F900DA8
:1017F000529F900D11246DE770E00E941F107093AE
:1018000025016093240110926E0082E085BDE09373
:101810006E000E9410048AE491E00E94A3060E94D8
:10182000B8060E944F078AE590E090932F018093BD
:101830002E0161E870E081E090E00E942B050E949B
:10184000B8068AE890E090932F0180932E01609172
:10185000090170910A0180E090E00E94E61005E91C
:1018600014E020E030E045E050E00E94D711B801DC
:1018700081E090E00E940E050E94B8068EEA90E09A
:1018800090932F0180932E016AE770E081E090E051
:101890000E942B050E94B8068CEF90E090932F01D8
:1018A00080932E0161E770E081E090E00E942B05BB
:1018B0000E94B80680E591E090932F0180932E015D
:1018C00068E670E072C020912401309125014DE757
:1018D000429FC001439F900D112460EA7FE00E9467
:1018E0001F10709325016093240110926E0084E014
:1018F00085BD81E080936E000E9410048AE491E02F
:101900000E94A3060E94B8060E944F078AE590E055
:1019100090932F0180932E0163EA70E081E090E0C4
:101920000E942B050E94B8068AE890E090932F0150
:1019300080932E016091090170910A0180E090E08E
:101940000E94E61005E914E020E030E045E050E0B8
:101950000E94D711B80181E090E00E940E050E941C
:10196000B8068EEA90E090932F0180932E016BE9E8
:1019700070E081E090E00E942B050E94B8068CEF99
:1019800090E090932F0180932E0162E970E081E056
:1019900090E00E942B050E94B80680E591E09093AC
:1019A0002F0180932E0169E870E081E090E00E94B1
:1019B0002B050E94B8061F910F91089520911C01DC
:1019C00090911A0180911B018295880F807E38E0EA
:1019D000239F800D1124890F90911901990F890F70
:1019E000209123016DE70E941310392F280F2093B7
:1019F00023018091240190912501830F911D9093E3
:101A000025018093240110921C0110921A0110925A
:101A10001B011092190108951092250110922401C2
:101A2000E0912301F0E080911F0190E0EE0FFF1F95
:101A3000EB55FC4F91838083E0912301F0E080918E
:101A40001E0190E0EE0FFF1FE35DFC4F918380834A
:101A500080910D0190910E0120911D01820F911D29
:101A600090930E0180930D01809123018F5F8093ED
:101A700023010E94DE0C10921F0110921E01109291
:101A80001D01809123018C3371F5E0912201F0E07A
:101A900080910D0190910E01EE0FFF1FE35EFB4F51
:101AA0009183808310920E0110920D01809122018A
:101AB0008F5F8093220110922301809122018C3349
:101AC00091F410922201809121018F5F8093210176
:101AD00080912101883139F41092210180912001F7
:101AE0008F5F8093200108951F920F920FB60F927F
:101AF00011242F933F934F935F936F937F938F9313
:101B00009F93AF93BF93EF93FF93809124019091A4
:101B100025010196909325018093240120911F01B6
:101B20008091170190911801280F20931F01209197
:101B30001E018091150190911601280F20931E011E
:101B400020911D018091130190911401280F209381
:101B50001D01109218011092170110921601109297
:101B600015011092140110921301809126018F33F8
:101B700021F080912601853161F4809124019091BA
:101B80002501803A9F4061F40E940C0D0E94970746
:101B900007C080912401909125018D379105A1F313
:101BA000FF91EF91BF91AF919F918F917F916F9135
:101BB0005F914F913F912F910F900FBE0F901F900B
:101BC0001895809104018C70843029F08091040173
:101BD0008C70883081F45898599A29E989E991E004
:101BE000215080409040E1F70000599880911C01FD
:101BF0008F5F80931C010895809104018C70843064
:101C000029F0809104018C70883081F458985A9A98
:101C100029E989E991E0215080409040E1F70000F6
:101C20005A9880911C018F5F80931C0108958091C8
:101C300004018C70843029F0809104018C7088300C
:101C400091F459985A98589A26E686E696E02150DB
:101C500080409040E1F7589859985A9880911B011C
:101C60008F5F80931B0108950F931F9386E08093ED
:101C700068008FE080936C0080EE80936D009FE1A0
:101C80009AB917B89FE398B98BB98BE18093040197
:101C90001092260110922501109224011092230126
:101CA00010922201109221011092200110921F0126
:101CB00010921E0110921D0110921C0110921B0126
:101CC00010921A0110921901109218011092170126
:101CD0001092160110921501109214011092130126
:101CE00080E090E09C01220F331FF901EB55FC4F7F
:101CF00011821082F901E35DFC4F11821082F9011B
:101D0000E35EFB4F1182108201968C33910551F7EF
:101D100010921201109211011092100110920F01F5
:101D200010920E0110920D0110920C0110920B01F5
:101D300010920A01109209010E94E10D0E94FC0D0F
:101D40000E94170E0E94190781E40E94FC037894F8
:101D50000E9410040E94B80610922F0110922E01CA
:101D60006EE371E081E090E00E942B050E94B806CE
:101D700088EA90E090932F0180932E0166E371E052
:101D800081E090E00E942B050E94B80688ED90E06B
:101D900090932F0180932E016091050170E080E007
:101DA00090E00E94E61005E914E020E030E041E018
:101DB00050E00E94D71163E371E081E090E00E945F
:101DC0002B0584EE90E090932F0180932E01B801B3
:101DD00081E090E00E940E050E94B8068CEF90E032
:101DE00090932F0180932E0164E271E081E090E0F6
:101DF0000E942B050E94B80684EA91E090932F017F
:101E000080932E0165E171E081E090E00E942B0556
:101E10000E94B8062FEF8FEF9AE421508040904047
:101E2000E1F700C000000E9410040E94B8068AE496
:101E300091E00E94A3060E94B8068AE590E0909384
:101E40002F0180932E016DE071E081E090E00E940F
:101E50002B050E94B8068AE890E090932F018093AA
:101E60002E016091090170910A0180E090E00E94CA
:101E7000E61020E030E045E050E00E94D711B801C4
:101E800081E090E00E940E050E94B8068EEA90E084
:101E900090932F0180932E0165E071E081E090E046
:101EA0000E942B050E94B8068CEF90E090932F01C2
:101EB00080932E016CEF70E081E090E00E942B0592
:101EC0000E94B80680E591E090932F0180932E0147
:101ED00063EF70E081E090E00E942B050E94B8065D
:101EE00080E00E94E50B0E9497071F910F910895D3
:101EF000809104018370823029F080910401837005
:101F0000833081F488E05B9AEFEFF7E03197F1F7E7
:101F100000C000005B988150B1F780911A018F5F7B
:101F200080931A010895809104018370813029F013
:101F3000809104018370833081F480E15B9AEFEF3C
:101F4000F7E03197F1F700C000005B988150B1F7DE
:101F5000809119018F5F8093190108951F920F924C
:101F60000FB60F9211242F933F934F935F936F936C
:101F70007F938F939F93AF93BF93CF93EF93FF93F1
:101F800086B1C6B1C8708770833039F18530C9F029
:101F9000811130C0809113019091140101969093AA
:101FA0001401809313018091090190910A01019617
:101FB00090930A01809309010E94170E0E94930FCB
:101FC00019C0809117019091180101969093180102
:101FD000809317010E94E10D0BC080911501909133
:101FE0001601019690931601809315010E94FC0D35
:101FF0000E94780FC11102C00E94340EFF91EF9130
:10200000CF91BF91AF919F918F917F916F915F9190
:102010004F913F912F910F900FBE0F901F901895E9
:102020000E94340EFFCF991B79E004C0991F9617C8
:1020300008F0961B881F7A95C9F780950895AA1B0A
:10204000BB1B51E107C0AA1FBB1FA617B70710F0A3
:10205000A61BB70B881F991F5A95A9F780959095D5
:10206000BC01CD01089597FB072E16F4009407D00C
:1020700077FD09D00E941F1007FC05D03EF4909513
:1020800081959F4F0895709561957F4F08952F9288
:102090003F924F925F926F927F928F929F92AF92F8
:1020A000BF92CF92DF92EF92FF920F931F93CF9345
:1020B000DF93CDB7DEB7CA1BDB0B0FB6F894DEBFDC
:1020C0000FBECDBF09942A88398848885F846E8402
:1020D0007D848C849B84AA84B984C884DF80EE804C
:1020E000FD800C811B81AA81B981CE0FD11D0FB655
:1020F000F894DEBF0FBECDBFED0108950CD0BAC07D
:10210000B2D040F0A9D030F021F45F3F19F09BC06D
:102110005111E4C09EC0BFD098F39923C9F3552351
:10212000B1F3951B550BBB27AA27621773078407CA
:1021300038F09F5F5F4F220F331F441FAA1FA9F380
:1021400033D00E2E3AF0E0E830D091505040E69572
:10215000001CCAF729D0FE2F27D0660F771F881FD3
:10216000BB1F261737074807AB07B0E809F0BB0BC2
:10217000802DBF01FF2793585F4F2AF09E3F5105E6
:1021800068F061C0ABC05F3FECF3983EDCF386952E
:1021900077956795B795F7959F5FC9F7880F911D5C
:1021A0009695879597F90895E1E0660F771F881F48
:1021B000BB1F621773078407BA0720F0621B730BFB
:1021C000840BBA0BEE1F88F7E0950895E89409C0D8
:1021D00097FB3EF490958095709561957F4F8F4F5A
:1021E0009F4F9923A9F0F92F96E9BB279395F69570
:1021F000879577956795B795F111F8CFFAF4BB0FEE
:1022000011F460FF1BC06F5F7F4F8F4F9F4F16C051
:10221000882311F096E911C0772321F09EE8872FDB
:10222000762F05C0662371F096E8862F70E060E097
:102230002AF09A95660F771F881FDAF7880F969510
:10224000879597F9089597F99F6780E870E060E0B7
:1022500008959FEF80EC089500240A94161617063F
:1022600018060906089500240A9412161306140687
:1022700005060895092E0394000C11F4882352F0EA
:10228000BB0F40F4BF2B11F460FF04C06F5F7F4FA2
:102290008F4F9F4F089557FD9058440F551F59F089
:1022A0005F3F71F04795880F97FB991F61F09F3F43
:1022B00079F087950895121613061406551FF2CF6C
:1022C0004695F1DF08C0161617061806991FF1CFBC
:1022D00086957105610508940895E894BB276627E3
:1022E0007727CB0197F908950BD0C4CFB5DF28F03D
:1022F000BADF18F0952309F0A6CFABCF1124EECFAB
:10230000CADFA0F3959FD1F3950F50E0551F629F50
:10231000F001729FBB27F00DB11D639FAA27F00D3E
:10232000B11DAA1F649F6627B00DA11D661F829F65
:102330002227B00DA11D621F739FB00DA11D621F4A
:10234000839FA00D611D221F749F3327A00D611D67
:10235000231F849F600D211D822F762F6A2F112449
:102360009F5750408AF0E1F088234AF0EE0FFF1F9C
:10237000BB1F661F771F881F91505040A9F79E3FD3
:10238000510570F060CFAACF5F3FECF3983EDCF3CD
:10239000869577956795B795F795E7959F5FC1F710
:1023A000FE2B880F911D9695879597F90895EF92CA
:1023B0000F931F93CF93DF93E80147FF02C034E1EF
:1023C00001C034E0E42FFF27E7FDF095F7FF03C0DD
:1023D000F195E195F109E32E022F2E2FAE010E9417
:1023E0000112CE01DF91CF911F910F91EF900895CF
:1023F000FB01DC0102C005900D9241505040D8F71E
:1024000008956F927F929F92AF92BF92CF92DF9288
:10241000EF92FF920F931F93CF93DF93CDB7DEB769
:1024200029970FB6F894DEBF0FBECDBF6A01B22E5A
:10243000102F0C3320F4FF24F394F00E02C04CE371
:10244000F42E0F2D27E0AE014F5F5F4F0E947F13E8
:102450007981272F2970213031F0E1FC06C0E0FCA2
:1024600006C060E005C06DE203C06BE201C060E23F
:10247000AE2DA07173FF36C0662311F084E001C059
:1024800083E08B1510F4B81A01C0B12CA1110BC058
:10249000F6018B2D90E2882319F091938150FBCFA8
:1024A000CB0CD11CB12C662331F0F6016083960170
:1024B0002F5F3F4F6901C6010396E2FE05C02EE47F
:1024C000F601208331E404C02EE6F601208331E6D4
:1024D00031832283FC012B2D30E22223F1F1319351
:1024E0002150FBCF72FF40C0662311F084E001C091
:1024F00083E08B1510F4B81A01C0B12CA1110BC0E8
:10250000F6018B2D90E2882319F091938150FBCF37
:10251000CB0CD11CB12C662331F0F60160839601FF
:102520002F5F3F4F6901C6010396E2FE07C029E411
:10253000F60120832EE4218326E406C029E6F60175
:1025400020832EE6218326E62283FC012B2D30E218
:10255000222319F031932150FBCFFC01EB0DF11D2B
:1025600010828EEF9FEFB7C0B1E0611101C0B0E003
:102570004B2F50E01816190624F49C012F5F3F4F93
:1025800002C021E030E0240F351F112329F0412F34
:1025900050E04F5F5F4F02C040E050E0420F531FDA
:1025A0002B2D30E04217530714F4B41A01C0B12C9C
:1025B0002E2D287159F4F6012B2D30E2222319F02B
:1025C00031932150FBCFCB0CD11CB12CBB2331F06C
:1025D000F601608396012F5F3F4F6901A1110BC087
:1025E000F6012B2D30E3222319F031932150FBCF3C
:1025F000CB0CD11CB12CF80E0A81372F3071A32ED1
:1026000074FF03C0013309F4FA941F142CF42F2D26
:10261000293018F028E001C021E0682F392F97FFFA
:1026200002C060E030E0462F532F612C712C3EE257
:10263000932EBC01621B71099B01DC01A41BB50B2D
:10264000E1E0F0E0EC0FFD1FAE0FBF1FE12EF12C1B
:10265000F194E194F1084F3FFFEF5F0731F4F60189
:102660009082B6016F5F7F4F6B01841795074CF026
:102670002417350734F4BD01660D771DFB01118168
:1026800001C010E341505109FFEF6F1A7F0AB601F4
:102690006F5F7F4F4E155F0524F0F60110836B01CD
:1026A000DACF4817590739F4063320F4053319F403
:1026B000A11001C011E3F6011083FB018B2D90E204
:1026C000882319F091938150FBCFFB01EB0DF11D95
:1026D000108280E090E029960FB6F894DEBF0FBE1E
:1026E000CDBFDF91CF911F910F91FF90EF90DF90C1
:1026F000CF90BF90AF909F907F906F9008952830BB
:1027000008F027E03327DA01990F311D87FD91602A
:1027100000966105710539F432602E5F3D9330E318
:102720002A95E1F708959F3F30F0803871056105E3
:1027300009F03C5F3C5F3D93913008F08068911D4B
:10274000DF93CF931F930F93FF92EF92192F987FF0
:102750009695E92F96959695E90FFF27ED59FA4F33
:1027600099273327EE24FF24A701E7010590089459
:10277000079428F4360FE71EF81E491F511D660FF7
:10278000771F881F991F0694A1F70590079428F4D6
:10279000E70EF81E491F561FC11D770F881F991F8E
:1027A000661F0694A1F70590079428F4F80E491FB8
:1027B000561FC71FD11D880F991F661F771F0694CC
:1027C000A1F70590079420F4490F561FC71FD81F83
:1027D000990F661F771F881F0694A9F7849110959B
:1027E000177041F0D695C79557954795F794E7949C
:1027F0001A95C1F7E9E0F5E06894159015913591C7
:102800006591959105907FE27395E118F10A430B6C
:10281000560BC90BD009C0F7E10CF11E431F561F20
:10282000C91FD01D7EF4703311F48A95E6CFE89469
:10283000015030F0080F0AF40027021708F4202F87
:102840002395022F7A3328F079E37D932A95E9F7CF
:1028500010C07D932A9589F60694979567953795CC
:1028600017951794E118F10A430B560BC90BD009C1
:1028700098F023957E9173957A3308F070E37C93FA
:102880002013B8F77E9170617D9330F0839571E3EA
:102890007D9370E32A95E1F71124EF90FF900F915B
:1028A0001F91CF91DF91992787FD90950895F89416
:0228B000FFCF58
:0828B20076302E331B02F80002
:00000001FF
