:100000000C9418030C9435030C9435030C943503AD
:100010000C94290F0C94FE110C9435030C943503A9
:100020000C9435030C9435030C9435030C94350370
:100030000C9435030C9435030C9435030C94350360
:100040000C9403110C9435030C9435030C94350374
:100050000C9435030C9435030C9435030C94350340
:100060000C949F030C9435033A30003A30006461DD
:100070007900474D322F6D696E3A00474D312F6D33
:10008000696E3A00202F686F75723A0020746F74A1
:10009000616C3A00474D3220746F743A00474D311D
:1000A00020746F743A00202F686F75723A002074C4
:1000B0006F74616C3A002000200020002A002A00A2
:1000C000474D322F7365633A00474D312F73656397
:1000D0003A00202F6D696E3A0020746F74616C3A9B
:1000E00000474D322F6D696E3A00474D312F6D69D3
:1000F0006E3A00202F686F75723A0020746F746139
:100100006C3A0020002A0020002A0020002A002A41
:10011000002000200020002A004F46462020004DED
:100120005520202000474D202020004D5520474DD0
:10013000004F4646004F4E20004C4544004F464677
:10014000006D756F6E68756E7465722E636F6D00ED
:100150004669726D776172653A2076302E320030D2
:10016000300073657269616C3A004D756F6E20489E
:10017000756E74657200109244102810449210003D
:10018000000000000000000000000000000000006F
:10019000000000000000000000000000000000005F
:1001A0000038384482281044380000000000000065
:1001B000000000000000000000000000000000003F
:1001C00000000000000000000000FE0408041E0003
:1001D000000000000000000000000000000000001F
:1001E000000000000000000000000000000000000F
:1001F00000000000000000000000000000000000FF
:1002000000000000000000000000000000000000EE
:100210000000000000000000000000000000FE04DC
:1002200008041E00000000000000000000000000A4
:1002300000000000000000000000000000000000BE
:1002400000000000000000000000000000000000AE
:10025000000000000000000000000000000000009E
:10026000000000000000000000000000000000008E
:10027000000000000000000000000000000000007E
:10028000000000000000000000000000000000006E
:10029000000000000000000000000000000000005E
:1002A000000000000000000000000000000000004E
:1002B000000000000000000000000000000000003E
:1002C000000000000000000000000000000000002E
:1002D000000000000000000000000000000000001E
:1002E000000000000000000000000000000000000E
:1002F00000000000000000000000000000000000FE
:1003000000000000000000000000000000000000ED
:1003100000000000000000000000000000000000DD
:1003200000000000000000000000000000000000CD
:1003300000000000000000000000000000000000BD
:1003400000000000000000000000000000000000AD
:10035000000000000000000000000000000000009D
:10036000000000000000000000000000000000008D
:1003700000000000002F00000007000700147F1499
:100380007F14242A7F2A12C4C810264636495522D3
:10039000500005030000001C2241000041221C0007
:1003A00014083E081408083E0808000050300010E9
:1003B00010101010006060000020100804023E5170
:1003C00049453E00427F4000426151494621414536
:1003D0004B311814127F1027454545393C4A49498D
:1003E0003001710905033649494936064949291E34
:1003F0000036360000005636000008142241001472
:10040000141414140041221408020151090632493F
:1004100059513E7E1111117E7F494949363E414175
:1004200041227F4141221C7F494949417F090909F5
:10043000013E4149497A7F0808087F00417F410019
:100440002040413F017F081422417F404040407FCF
:10045000020C027F7F0408107F3E4141413E7F092C
:100460000909063E4151215E7F091929464649493D
:10047000493101017F01013F4040403F1F204020A2
:100480001F3F4038403F6314081463070870080793
:100490006151494543007F414100552A552A550085
:1004A00041417F00040201020440404040400001FD
:1004B00002040020545454787F484444383844445B
:1004C0004420384444487F3854545418087E090165
:1004D000020C5252523E7F0804047800447D4000D2
:1004E0002040443D007F1028440000417F40007CB4
:1004F000041804787C0804047838444444387C1494
:10050000141408081414187C7C0804040848545473
:100510005420043F4440203C4040207C1C2040208C
:100520001C3C4030403C44281028440C5050503C67
:100530004464544C4400407A10F35A00A0724E18A0
:10054000090010A5D4E80000E87648170000E40B85
:1005500054020000CA9A3B000000E1F5050000804B
:10056000969800000040420F000000A086010000A5
:1005700000102700000000E80300000000640000F5
:100580000000000A00000000000100000000002C34
:1005900076D888DC674F0823DFC1DFAE59E1B1B7F9
:1005A00096E5E3E453C63AE651997696E8E6C284C6
:1005B00026EB898C9B62ED407C6FFCEFBC9C9F40DE
:1005C000F2BAA56FA5F490055A2AF75C936B6CF903
:1005D000676DC11BFCE0E40D47FEF520E6B500D0D9
:1005E000ED902E0300943577050080841E080000EE
:1005F000204E0A000000C80C333333330F986E12BC
:10060000831141EF8D2114893BE65516CFFEE6DBC1
:1006100018D1844B381BF77C1D901DA4BBE424200B
:100620003284725E228100C9F124ECA1E53D2700ED
:1006300011241FBECFEFD4E0DEBFCDBF11E0A0E09C
:10064000B1E0EEEBFDE202C005900D92A830B107DB
:10065000D9F724E0A8E0B1E001C01D92A43AB207A6
:10066000E1F70E9496120C94DD160C9400002A9873
:100670006130710511F4289A01C028988EBD0DB41F
:1006800007FEFDCF2A9A089582E08093B8008FEF8D
:100690008093BB0084E08093BC0008958091BC00EF
:1006A000817008958091BC0080FDFCCF809106018F
:1006B00008952091BC0020FDFCCF60933003FC0125
:1006C00020812093310320FF09C010922F0188EF71
:1006D0008093060185EA8093BC000895DC011196A1
:1006E000E2E3F3E081E08E1B982F9E0F961768F7E8
:1006F0009D919193F9CF8091BC0080FDFCCF109229
:100700002F0188EF8093060185EA8093BC0008954D
:100710002091BC0020FDFCCF20912F0120FD04C0C2
:1007200080912F018170089521E333E0FC01D9010C
:100730008A2F821B8617A0F78D918193F9CF1F9284
:100740000F920FB60F9211242F933F938F939F9385
:10075000EF93FF938091B900883201F140F480312A
:10076000D9F08831D9F0883009F04AC015C08034FA
:1007700091F128F4883309F043C085EA46C08035FA
:10078000F1F08835E9F58091BB00E0913001F0E0AF
:10079000EF5CFC4F80832DC010923001E09130015E
:1007A00080913003E81728F581E08E0F80933001A7
:1007B000F0E0EF5CFC4F80818093BB0018C0E091BB
:1007C000300181E08E0F809330018091BB00F0E01A
:1007D000EF5CFC4F80832091300130E0809130034A
:1007E00090E001972817390714F485EC0EC085E8CE
:1007F0000CC080912F01816080932F0184E905C096
:100800008091B9008093060184E08093BC00FF9141
:10081000EF919F918F913F912F910F900FBE0F906D
:100820001F901895CF93C82F60E070E081E20E947E
:10083000370360E070E08C2F80680E94370360E02F
:1008400070E080E20E943703CF91089588EF91E035
:10085000E8E3F1E0DF019C011D9221503040E1F717
:10086000109235011092340187EF91E0909333019B
:100870008093320181E08093310108958F30D8F464
:100880006730C8F490E0019746E0489F9001499F87
:10089000300D112470E06150710944E5469FC0019C
:1008A000479F900D1124280F391F30933701209353
:1008B000360180E0089581E008951F93CF93DF9380
:1008C000209136013091370140913401509135012A
:1008D0002417350724F4309335012093340140EE7A
:1008E000460F4C3508F06CE581309105C9F4C9011B
:1008F0002B5F3F4F45E0649FB0011124681B790BCB
:1009000062537D4FFB01E80FF91FE491DC01A85C05
:10091000BE4FEE0FEC9301968217930799F767C0CD
:10092000029709F068C0C9018455910940913401CA
:10093000509135018417950724F4909335018093E5
:10094000340197FD7CC0AC0185E0689FB0011124A3
:1009500080E090E062537D4F1CE0D8E1FB01E80F9E
:10096000F91FE491EE0FAE2FA470A19FA02D1124CA
:10097000BE2FB270FB2FFF0FFB0FFF0FAF2BFE2F11
:10098000F870FD9FF02D1124AF2BE295EF70FE2F34
:10099000F270CF2FCC0FCF0FCC0FBE2FB170FB2F2B
:1009A000FF0FFB0FCF2BFE2FF470F19FF02D1124C2
:1009B000CF2BE870ED9FE02D1124CE2BFA01E85CDF
:1009C000FE4FA083A183DF01AC5ABF4FCC93EB5AFB
:1009D000FF4FC08301964E5F5F4F8530910509F050
:1009E000BDCFC9010B9668EF71E00E94B9129093D8
:1009F0003701809336018091360190913701209123
:100A00003201309133012817390724F490933301D0
:100A100080933201FC01E85CFE4F1082873F21E0A9
:100A2000920731F4109237011092360182E008C02B
:100A30000196909337018093360180E001C081E0F8
:100A4000DF91CF911F910895FF920F931F93CF9342
:100A5000DF93EC018B01F12CF801EF0DF11D6081AA
:100A6000662339F0CE010E945D04813021F0F394B9
:100A7000F3CF80E001C081E0CDB7DEB7E5E00C94B4
:100A8000F6120F931F93CF93DF938C01EB01FE01BE
:100A90006491662339F0C8010E945D04813021F021
:100AA0002196F5CF80E001C081E0DF91CF911F91C9
:100AB0000F910895853508F04FC0613308F04CC0A0
:100AC000262F26952695269590E034E5239F800DC8
:100AD000911D112438EF239F600D1124FC01E85C67
:100AE000FE4F70814115510551F421E030E0062E92
:100AF00001C0220F0A94EAF72095722315C04130F5
:100B0000510539F4062E01C0440F0A94EAF7742BFC
:100B10000BC04230510541F421E030E0062E01C007
:100B2000220F0A94EAF772277083209134013091E2
:100B300035018217930720F4909335018093340197
:100B400020913201309133012817390738F49093FE
:100B500033018093320102C081E0089580E008955E
:100B6000A0E0B0E0E6EBF5E00C94D112A82ED62E72
:100B7000B42E722EC22FD0E0C41BD109E62EF12C68
:100B8000E81AF108D7FF06C0D195C195D10988248C
:100B90008A9402C088248394F7FE06C0F194E194FD
:100BA000F10899249A9402C099249394A8016B2D7A
:100BB0008A2D0E945A0581113BC0EE0CFF1CCC0F00
:100BC000DD1FCE15DF05C4F4C701959587953E015D
:100BD000681A790AAD14C1F077FC03C0B80C6E181E
:100BE0007F08A90C6C0E7D1EA8016B2D8A2D0E941A
:100BF0005A05882379F31CC0CE0195958795670126
:100C0000C81AD90AB71005C081E08093310180E08D
:100C10000FC0D7FC03C0A90CCC1ADD0AB80CCE0C4F
:100C2000DF1CA8016B2D8A2D0E945A05882351F3E1
:100C3000CDB7DEB7EEE00C94ED12A0E0B0E0E3E259
:100C4000F6E00C94D712C82EE62E84E58C1528F118
:100C500080E3861710F1641718F0F62EF41A01C01D
:100C6000F12CC22FD0E0CC0DD11DFE1488F4DC2C69
:100C70002D2D30E02C173D074CF4A8016F2D8D2D44
:100C80000E945A0581110AC0D394F2CFF394EDCF9C
:100C900081E08093310180E001C081E0CDB7DEB713
:100CA000E8E00C94F312A0E0B0E0E9E5F6E00C9483
:100CB000D512D62EE42EA22E62E0B62EB40EC82E89
:100CC000EC0175E0F72E80E09C2F9C199D15B0F487
:100CD000853510F081E016C049914A9D402D1124C0
:100CE00001E010E02E2D66E28F2D0E941D069F2D43
:100CF0009B0D813079F38F2DF92EE6CF81E0809323
:100D0000310180E0CDB7DEB7EAE00C94F112A1E04A
:100D1000B0E0EDE8F6E00C94D712F82EE62ED42ED3
:100D200084E58F15F8F08617E8F0E0E3E417D0F0DB
:100D30002133C0F4F616C0F44217B0F4CF2CA8014A
:100D40006D2D8C2D29830E945A05298181110DC09A
:100D5000C394CE10F4CFD394D212F0CF81E080931D
:100D6000310102C081E001C080E02196E8E00C94EE
:100D7000F31248EF51E0BC0188E391E00E947E1439
:100D8000109235011092340187EF91E09093330176
:100D90008093320181E08093310108951F93CF93B6
:100DA000DF93809134019091350197FF05C0109237
:100DB00035011092340109C0883F914034F087EF2B
:100DC00091E09093350180933401809132019091AC
:100DD000330197FF05C0109233011092320109C010
:100DE000883F914034F087EF91E0909333018093F6
:100DF0003201C0913401D0913501CE0164E570E03B
:100E00000E94B912162F60E070E080680E943703DC
:100E100060E070E0812F80640E943703809132018E
:100E2000909133018C179D0754F0FE01E85CFE4F52
:100E300061E070E080810E9437032196EFCF87EF59
:100E400091E0909335018093340110923301109218
:100E5000320110923101DF91CF911F9108952C9AA8
:100E600084B18D6384B92C982C9A80E58CBD2A9A24
:100E700060E070E081E20E94370360E070E088EC9F
:100E80000E94370360E070E086E00E94370360E074
:100E900070E083E10E94370360E070E080E20E942E
:100EA000370360E070E08CE00E94370388EF91E048
:100EB00090933501809334011092330110923201E6
:100EC0000E9426040E94CE0608958CE090E0909344
:100ED000370180933601809104018C7090E09595E4
:100EE0008795959587958230910559F083309105C6
:100EF00029F0019749F465E371E008C06DE371E002
:100F000005C069E371E002C061E371E081E090E057
:100F10000E9441050E94CE0686E390E0909337013F
:100F200080933601809104018370823051F08330C8
:100F300029F0813049F46FE171E008C06BE271E0A3
:100F400005C065E271E002C069E171E081E090E016
:100F50000E9441050E94CE060895809104018C7084
:100F6000843029F0809104018C70883081F4589885
:100F7000599A29E989E991E0215080409040E1F7B0
:100F80000000599880911C018F5F80931C01089587
:100F9000809104018C70843029F0809104018C7060
:100FA000883081F458985A9A29E989E991E02150CA
:100FB00080409040E1F700005A9880911C018F5FBB
:100FC00080931C010895809104018C70843029F075
:100FD000809104018C70883091F459985A98589AED
:100FE00026E686E696E0215080409040E1F758984A
:100FF00059985A9880911B018F5F80931B01089527
:10100000809104018370823029F080910401837003
:10101000833081F488E05B9AEFEFF7E03197F1F7E6
:1010200000C000005B988150B1F780911A018F5F7A
:1010300080931A010895809104018370813029F012
:10104000809104018370833081F480E15B9AEFEF3B
:10105000F7E03197F1F700C000005B988150B1F7DD
:10106000809119018F5F8093190108950F931F9349
:10107000E82F882309F478C0813009F0EDC0409151
:101080002C0150912D0120EA3FE0429FC001439F77
:10109000900D529F900D11246DE770E00E94A512F3
:1010A00070932D0160932C0110926E0082E085BD3B
:1010B000E0936E000E94260486E791E00E94B90644
:1010C0000E94CE060E9465078AE590E09093370162
:1010D0008093360169ED70E081E090E00E94410567
:1010E0000E94CE068AE890E0909337018093360103
:1010F0006091090170910A0180E090E00E946C13F8
:101100000DE914E020E030E045E050E00E945D147D
:10111000B80181E090E00E9424050E94CE068EEA8C
:1011200090E0909337018093360162ED70E081E0AA
:1011300090E00E9441050E94CE068CEF90E09093D3
:1011400037018093360169EC70E081E090E00E9405
:1011500041050E94CE0680E591E09093370180938F
:10116000360160EC70E072C020912C0130912D01AD
:101170004DE7429FC001439F900D112460EA7FE03C
:101180000E94A51270932D0160932C0110926E00A5
:1011900084E085BD81E080936E000E94260486E78E
:1011A00091E00E94B9060E94CE060E9465078AE57A
:1011B00090E090933701809336016BEF70E081E00F
:1011C00090E00E9441050E94CE068AE890E090934C
:1011D0003701809336016091090170910A0180E026
:1011E00090E00E946C130DE914E020E030E045E04F
:1011F00050E00E945D14B80181E090E00E94240557
:101200000E94CE068EEA90E09093370180933601DB
:1012100063EF70E081E090E00E9441050E94CE06FD
:101220008CEF90E090933701809336016AEE70E086
:1012300081E090E00E9441050E94CE0680E591E0A9
:10124000909337018093360161EE70E081E090E089
:101250000E9441050E94CE061F910F910895209192
:101260001C0190911A0180911B018295880F807E4C
:1012700038E0239F800D1124890F90911901990F57
:10128000890F20912B016DE70E949912392F280FA9
:1012900020932B0180912C0190912D01830F911DA2
:1012A00090932D0180932C0110921C0110921A0131
:1012B00010921B0110921901089510922D011092A5
:1012C0002C01E0912B01F0E08091270190E0EE0FDE
:1012D000FF1FE355FC4F91838083E0912B01F0E0E9
:1012E0008091260190E0EE0FFF1FEB5CFC4F918395
:1012F00080838091210190912201A0912301B091DE
:10130000240120912701820F911DA11DB11D809301
:10131000210190932201A0932301B0932401809195
:101320001D0190911E01A0911F01B09120012091FB
:101330002601820F911DA11DB11D80931D01909367
:101340001E01A0931F01B093200180910D01909187
:101350000E0120912501820F911D90930E01809323
:101360000D0180912B018F5F80932B010E942F092B
:1013700010922701109226011092250180912B01D5
:101380008C3371F5E0912A01F0E080910D0190918C
:101390000E01EE0FFF1FEB5DFB4F918380831092D8
:1013A0000E0110920D0180912A018F5F80932A0116
:1013B00010922B0180912A018C3391F410922A0112
:1013C000809129018F5F80932901809129018831C3
:1013D00039F410922901809128018F5F80932801B0
:1013E00008950F931F9384EA91E0909337018093BF
:1013F00036016091280170E080E090E00E946C135B
:101400000DE914E020E030E042E050E00E945D147D
:10141000B80181E090E00E9424050E94CE0680EB96
:1014200091E090933701809336016EE670E081E0A1
:1014300090E00E9441050E94CE0688EC91E09093D6
:101440003701809336016091290170E080E090E0DF
:101450000E946C1320E030E042E050E00E945D14F6
:10146000B80181E090E00E9424050E94CE0684ED40
:1014700091E090933701809336016BE670E081E054
:1014800090E00E9441050E94CE0680912A018A3098
:1014900090F480EE91E09093370180933601609153
:1014A0002A0170E080E090E00E946C1320E030E0C0
:1014B00041E050E013C08AED91E0909337018093B2
:1014C000360160912A0170E080E090E00E946C1388
:1014D0000DE914E020E030E042E050E00E945D14AD
:1014E000B80181E090E00E9424050E94CE0686EEBD
:1014F00091E0909337018093360168E670E081E0D7
:1015000090E00E9441050E94CE0680912B018A3016
:10151000A0F482EF91E090933701809336016091BF
:101520002B0170E080E090E00E946C130DE914E064
:1015300020E030E041E050E013C08CEE91E0909369
:1015400037018093360160912B0170E080E090E0DC
:101550000E946C130DE914E020E030E042E050E01E
:101560000E945D14B80181E090E00E9424050E9471
:10157000CE061F910F910895A0E0B0E0E2ECFAE0F2
:101580000C94D71280912E018F3329F080912E0177
:10159000853109F0BCC08AE890E0909337018093D0
:1015A00036016091090170910A0180E090E00E948B
:1015B0006C130DE914E020E030E045E050E00E94BB
:1015C0005D14B80181E090E00E9424050E94CE06DF
:1015D0008EED90E0909337018093360180912A013F
:1015E00081111DC080912901811119C080912801AC
:1015F000811115C088ED90E09093370180933601FA
:1016000067E171E081E090E00E9441050E94CE0612
:1016100080912B01882331F180912B0123C088ED2B
:1016200090E0909337018093360165E171E081E0AD
:1016300090E00E9441050E94CE06E0912A01F0E070
:10164000EE0FFF1FEB5DFB4F6081718180E090E04A
:101650000E946C130DE914E020E030E045E050E01A
:101660000E945D146DE974E081E090E00E94240521
:101670000E94CE068CE291E0909337018093360170
:1016800063E171E081E090E00E9441050E94CE0696
:10169000E0912B01F0E0EE0FFF1FE355FC4F60815E
:1016A000718180E090E00E946C130DE914E020E06D
:1016B00030E045E050E00E945D14B80181E090E028
:1016C0000E9424050E94CE0680E891E090933701A5
:1016D0008093360161E171E081E090E00E94410574
:1016E0000E94CE06E0912B01F0E0EE0FFF1FEB5CB5
:1016F000FC4F6081718180E090E00E946C1320E0DB
:1017000030E045E050E00E945D14B80125C28AE84F
:1017100090E09093370180933601609109017091B8
:101720000A0180E090E00E946C130DE914E020E0D3
:1017300030E045E050E00E945D14B80181E090E0A7
:101740000E9424050E94CE068EED90E09093370112
:10175000809336018091290181114EC080912A0128
:10176000882309F449C088ED90E090933701809375
:1017700036016FE071E081E090E00E9441050E9437
:10178000CE0680E090E060E0FC01EE0FFF1FEB5D15
:10179000FB4F20813181620F01968C339105A1F7B7
:1017A000C0912A01D0912B0170E080E090E00E946E
:1017B0006C1320E030E041E655E40E94FA136B011F
:1017C0007C016D2F70E08CE3C89F600D711D1124AA
:1017D000882777FD8095982F0E946E139B01AC019E
:1017E000C701B6010E9404130DE914E020E030E0C7
:1017F00045E050E00E945D1480912A0181114BC0A8
:1018000080912901811147C080912801811143C035
:1018100088ED90E090933701809336016DE071E0A0
:1018200081E090E00E9441050E94CE0680912B014C
:10183000882331F180910D0190910E01C0912B010F
:10184000BC0180E090E00E946C1320E030E041E6B3
:1018500055E40E94FA136B017C016C2F70E080E06C
:1018600090E00E946E139B01AC01C701B6010E947B
:1018700004130DE914E020E030E045E050E009C039
:101880000DE914E020E030E045E050E060E070E079
:10189000CB010E945D1480912901811104C08091C7
:1018A00028018823C9F188ED90E090933701809357
:1018B00036016BE071E081E090E00E9441050E94FA
:1018C000CE0680E090E040910B0150910C01FC01AC
:1018D000EE0FFF1FEB5DFB4F20813181240F351F81
:1018E00030930C0120930B0101968C33910559F72D
:1018F00060910B0170910C0180E090E00E946C13EC
:101900000DE914E020E030E045E050E00E945D1475
:1019100010920C0110920B016DE974E081E090E0EF
:101920000E9424050E94CE0682E391E09093370145
:1019300080933601109212011092110180E090E024
:101940004091110150911201FC01EE0FFF1FE35570
:10195000FC4F20813181240F351F309312012093D9
:10196000110101968C33910559F780912A0181115B
:1019700044C080912901811140C0809128018111CA
:101980003CC08CE291E0909337018093360169E08E
:1019900071E081E090E00E9441050E94CE068091B6
:1019A0002B0181110AC00DE914E020E030E045E090
:1019B00050E060E070E0CB013CC08091110190915B
:1019C0001201C0912B01BC0180E090E00E946C13D9
:1019D00020E030E040E752E40E94FA136B017C0102
:1019E0006C2F70E080E090E00E946E139B01AC01D0
:1019F000C701B6010E94041316C08CE291E09093D7
:101A000037018093360167E071E081E090E00E9449
:101A100041050E94CE06609111017091120180E093
:101A200090E00E946C130DE914E020E030E045E006
:101A300050E00E945D146DE974E081E090E00E9446
:101A400024050E94CE0686E891E0909337018093AA
:101A500036011092100110920F0180E090E0409149
:101A60000F0150911001FC01EE0FFF1FEB5CFC4FCA
:101A700020813181240F351F3093100120930F01F5
:101A800001968C33910559F780912A01811144C048
:101A900080912901811140C08091280181113CC0B1
:101AA00080E891E0909337018093360165E071E022
:101AB00081E090E00E9441050E94CE0680912B01BA
:101AC00081110AC00DE914E020E030E045E050E06B
:101AD00060E070E0CB013CC080910F01909110015B
:101AE000C0912B01BC0180E090E00E946C1320E0CB
:101AF00030E040E752E40E94FA136B017C016C2F46
:101B000070E080E090E00E946E139B01AC01C70181
:101B1000B6010E94041316C080E891E0909337014B
:101B20008093360163E071E081E090E00E9441051E
:101B30000E94CE0660910F017091100180E090E04C
:101B40000E946C130DE914E020E030E045E050E025
:101B50000E945D146DE974E081E090E00E9424052C
:101B60000E94CE060E94F109CDB7DEB7E8E00C94E2
:101B7000F3120F931F9386E0809368008FE08093A9
:101B80006C0080EE80936D0017B88FE388B90E94D7
:101B90002F0781E40E9412040E9426040E94CE06B0
:101BA00086E791E00E94B9060E94CE068AE590E0A1
:101BB00090933701809336016CE870E081E090E00B
:101BC0000E9441050E94CE068AE890E0909337017A
:101BD000809336016091090170910A0180E090E0E4
:101BE0000E946C130DE914E020E030E045E050E085
:101BF0000E945D14B80181E090E00E9424050E94DB
:101C0000CE068EEA90E0909337018093360164E827
:101C100070E081E090E00E9441050E94CE068CEFCA
:101C200090E090933701809336016BE770E081E09C
:101C300090E00E9441050E94CE0680E591E09093DD
:101C400037018093360162E770E081E090E00E9406
:101C500041050E94CE060E94BC0A1F910F91089573
:101C60000F931F9386E0809368008FE080936C0051
:101C700080EE80936D009FE19AB917B89FE398B901
:101C80008BB98BE18093040110922E0110922D01EB
:101C900010922C0110922B0110922A01109229010E
:101CA000109228011092270110922601109225010E
:101CB00010921C0110921B0110921A01109219012E
:101CC000109218011092170110921601109215012E
:101CD000109214011092130110922101109222010E
:101CE000109223011092240110921D0110921E01E6
:101CF00010921F011092200180E090E09C01220FC1
:101D0000331FF901E355FC4F11821082F901EB5C9E
:101D1000FC4F11821082F901EB5DFB4F11821082A2
:101D200001968C33910551F7109212011092110116
:101D30001092100110920F0110920E0110920D01DD
:101D400010920C0110920B0110920A0110920901DD
:101D50000E94AD070E94C8070E94E3070E942F0758
:101D600081E40E94120478940E9426040E94CE0608
:101D700010923701109236016AE671E081E090E03E
:101D80000E9441050E94CE0688EA90E090933701B8
:101D90008093360162E671E081E090E00E944105A7
:101DA0000E94CE0688ED90E0909337018093360133
:101DB0006091050170E080E090E00E946C130DE9F5
:101DC00014E020E030E041E050E00E945D146FE557
:101DD00071E081E090E00E94410584EE90E09093F4
:101DE000370180933601B80181E090E00E9424051C
:101DF0000E94CE068CEF90E09093370180933601DD
:101E000060E571E081E090E00E9441050E94CE060D
:101E100084EA91E0909337018093360161E471E0A8
:101E200081E090E00E9441050E94CE062FEF8FEFE7
:101E30009AE4215080409040E1F700C000000E94E9
:101E4000B90D80E00E9436080E94BC0A1F910F91D4
:101E500008951F920F920FB60F9211242F933F9364
:101E60004F935F936F937F938F939F93AF93BF93A2
:101E7000CF93EF93FF9386B1C6B1C870877083305C
:101E8000C9F1853059F1811142C0809113019091BF
:101E9000140101969093140180931301809117010E
:101EA00090911801019690931801809317018091E9
:101EB00015019091160101969093160180931501DA
:101EC0008091090190910A01019690930A018093F3
:101ED00009010E94E3070E941B0819C080911701A5
:101EE00090911801019690931801809317010E9418
:101EF000AD070BC08091150190911601019690934A
:101F00001601809315010E94C8070E940008C111A4
:101F100002C00E94300EFF91EF91CF91BF91AF911F
:101F20009F918F917F916F915F914F913F912F91F1
:101F30000F900FBE0F901F901895A0E0B0E0E3EA5D
:101F4000FFE00C94D7128AE890E0909337018093D9
:101F500036016091090170910A0180E090E00E94D1
:101F60006C130DE914E020E030E045E050E00E9401
:101F70005D14B80181E090E00E9424050E94CE0625
:101F80008EED90E090933701809336018091290186
:101F900081114EC080912A01882309F449C088ED3F
:101FA00090E090933701809336016EEB70E081E012
:101FB00090E00E9441050E94CE0680E090E060E043
:101FC000FC01EE0FFF1FEB5DFB4F20813181620FA3
:101FD00001968C339105A1F7C0912A01D0912B0174
:101FE00070E080E090E00E946C1320E030E041E679
:101FF00055E40E94FA136B017C016D2F70E08CE3B5
:10200000C89F600D711D1124882777FD8095982F3A
:102010000E946E139B01AC01C701B6010E9404131C
:102020000DE914E020E030E045E050E00E945D144E
:1020300080912A0181114BC080912901811147C0F3
:1020400080912801811143C088ED90E09093370181
:10205000809336016CEB70E081E090E00E944105D6
:102060000E94CE0680912B01882331F180910D01D1
:1020700090910E01C0912B01BC0180E090E00E9484
:102080006C1320E030E041E655E40E94FA136B0146
:102090007C016C2F70E080E090E00E946E139B0149
:1020A000AC01C701B6010E9404130DE914E020E061
:1020B00030E045E050E009C00DE914E020E030E0F8
:1020C00045E050E060E070E0CB010E945D1480913B
:1020D0002901811104C0809128018823C9F188ED6C
:1020E00090E090933701809336016AEB70E081E0D5
:1020F00090E00E9441050E94CE0680E090E0409171
:102100000B0150910C01FC01EE0FFF1FEB5DFB4F2B
:1021100020813181240F351F30930C0120930B0156
:1021200001968C33910559F760910B0170910C0168
:1021300080E090E00E946C130DE914E020E030E0B4
:1021400045E050E00E945D1410920C0110920B01CA
:102150006DE974E081E090E00E9424050E94CE06C3
:102160008CE291E0909337018093360168EB70E048
:1021700081E090E00E9441050E94CE06609121011D
:102180007091220180912301909124010E946C138F
:102190000DE914E020E030E045E050E00E945D14DD
:1021A000B80181E090E00E9424050E94CE0680E8FC
:1021B00091E0909337018093360166EB70E081E007
:1021C00090E00E9441050E94CE0660911D01709131
:1021D0001E0180911F01909120010E946C1320E04C
:1021E00030E045E050E00E945D14B80181E090E0ED
:1021F0000E9424050E94CE060E94F109CDB7DEB7E9
:10220000E8E00C94F3121F920F920FB60F92112474
:102210002F933F934F935F936F937F938F939F93EE
:10222000AF93BF93EF93FF9380912C0190912D0179
:10223000019690932D0180932C012091270180918C
:10224000170190911801280F209327012091260152
:102250008091150190911601280F2093260120915D
:1022600025018091130190911401280F20932501DD
:102270001092180110921701109216011092150178
:10228000109214011092130180912E018F3321F0CE
:1022900080912E01853161F480912C0190912D0166
:1022A000803A9F4019F50E945D090E94BC0A1EC039
:1022B00080912E0181110BC080912C0190912D01F4
:1022C0008D37910521F40E945D090E94BC0A80911E
:1022D0002E01803459F480912C0190912D018D377D
:1022E000910521F40E945D090E949D0FFF91EF91DD
:1022F000BF91AF919F918F917F916F915F914F911E
:102300003F912F910F900FBE0F901F9018950F9334
:102310001F9386E0809368008FE080936C0080EECE
:1023200080936D0017B88FE388B90E942F0781E46E
:102330000E9412040E9426040E94CE0686E791E0C5
:102340000E94B9060E94CE068AE590E0909337017C
:10235000809336016EEA70E081E090E00E944105D2
:102360000E94CE068AE890E0909337018093360170
:102370006091090170910A0180E090E00E946C1365
:102380000DE914E020E030E045E050E00E945D14EB
:10239000B80181E090E00E9424050E94CE068EEAFA
:1023A00090E0909337018093360166EA70E081E017
:1023B00090E00E9441050E94CE068CEF90E0909341
:1023C0003701809336016DE970E081E090E00E9472
:1023D00041050E94CE0680E591E0909337018093FD
:1023E000360164E970E081E090E00E9441050E94BE
:1023F000CE060E949D0F1F910F9108951F920F927C
:102400000FB60F9211242F933F934F935F936F93C7
:102410007F938F939F93AF93BF93CF93EF93FF934C
:102420008FEF9FE30197F1F700C0000080911A0140
:102430008F5F80931A01C9B10E94BC0A8091040188
:10244000209104019C2F9295969597709530B9F044
:10245000963081F1933009F057C080912E01882386
:1024600041F0803409F050C010922E010E94B90D45
:1024700049C080E480932E010E94871143C0822FBF
:102480008370823069F0833059F0813069F4809133
:1024900004018E7F8093040180910401826007C053
:1024A000809104018D7F03C080910401836080933B
:1024B000040128C08C7090E0959587959595879537
:1024C0008230910591F08330910559F00197A1F484
:1024D000809104018B7F80930401809104018860C6
:1024E00007C080910401877F0AC080910401877F23
:1024F000809304015C9806C08091040184608093FD
:1025000004015C9A0E946507FF91EF91CF91BF9102
:10251000AF919F918F917F916F915F914F913F917B
:102520002F910F900FBE0F901F9018950E94300EA4
:10253000FFCF991B79E004C0991F961708F0961BEE
:10254000881F7A95C9F780950895AA1BBB1B51E196
:1025500007C0AA1FBB1FA617B70710F0A61BB70B13
:10256000881F991F5A95A9F780959095BC01CD01B8
:10257000089597FB072E16F4009407D077FD09D035
:102580000E94A51207FC05D03EF4909581959F4FBF
:102590000895709561957F4F08952F923F924F92C5
:1025A0005F926F927F928F929F92AF92BF92CF92E3
:1025B000DF92EF92FF920F931F93CF93DF93CDB7EC
:1025C000DEB7CA1BDB0B0FB6F894DEBF0FBECDBF64
:1025D00009942A88398848885F846E847D848C8435
:1025E0009B84AA84B984C884DF80EE80FD800C813E
:1025F0001B81AA81B981CE0FD11D0FB6F894DEBF21
:102600000FBECDBFED0108950CD0BAC0B2D040F0DE
:10261000A9D030F021F45F3F19F09BC05111E4C004
:102620009EC0BFD098F39923C9F35523B1F3951BEE
:10263000550BBB27AA2762177307840738F09F5FE3
:102640005F4F220F331F441FAA1FA9F333D00E2E52
:102650003AF0E0E830D091505040E695001CCAF7BF
:1026600029D0FE2F27D0660F771F881FBB1F261784
:1026700037074807AB07B0E809F0BB0B802DBF0157
:10268000FF2793585F4F2AF09E3F510568F061C0C5
:10269000ABC05F3FECF3983EDCF38695779567958A
:1026A000B795F7959F5FC9F7880F911D9695879508
:1026B00097F90895E1E0660F771F881FBB1F621727
:1026C00073078407BA0720F0621B730B840BBA0BE5
:1026D000EE1F88F7E0950895E89409C097FB3EF453
:1026E00090958095709561957F4F8F4F9F4F99235F
:1026F000A9F0F92F96E9BB279395F69587957795DD
:102700006795B795F111F8CFFAF4BB0F11F460FF9C
:102710001BC06F5F7F4F8F4F9F4F16C0882311F0F4
:1027200096E911C0772321F09EE8872F762F05C008
:10273000662371F096E8862F70E060E02AF09A95A3
:10274000660F771F881FDAF7880F9695879597F998
:10275000089597F99F6780E870E060E008959FEF23
:1027600080EC089500240A94161617061806090628
:10277000089500240A9412161306140605060895F7
:10278000092E0394000C11F4882352F0BB0F40F47F
:10279000BF2B11F460FF04C06F5F7F4F8F4F9F4FBF
:1027A000089557FD9058440F551F59F05F3F71F041
:1027B0004795880F97FB991F61F09F3F79F08795A8
:1027C0000895121613061406551FF2CF4695F1DF31
:1027D00008C0161617061806991FF1CF86957105C1
:1027E000610508940895E894BB2766277727CB01F5
:1027F00097F908950BD0C4CFB5DF28F0BADF18F0F1
:10280000952309F0A6CFABCF1124EECFCADFA0F3FA
:10281000959FD1F3950F50E0551F629FF001729F75
:10282000BB27F00DB11D639FAA27F00DB11DAA1F94
:10283000649F6627B00DA11D661F829F2227B00DE1
:10284000A11D621F739FB00DA11D621F839FA00D6C
:10285000611D221F749F3327A00D611D231F849FBC
:10286000600D211D822F762F6A2F11249F57504013
:102870008AF0E1F088234AF0EE0FFF1FBB1F661FAE
:10288000771F881F91505040A9F79E3F510570F067
:1028900060CFAACF5F3FECF3983EDCF38695779547
:1028A0006795B795F795E7959F5FC1F7FE2B880F62
:1028B000911D9695879597F90895EF920F931F9321
:1028C000CF93DF93E80147FF02C034E101C034E059
:1028D000E42FFF27E7FDF095F7FF03C0F195E195A1
:1028E000F109E32E022F2E2FAE010E948714CE0194
:1028F000DF91CF911F910F91EF900895FB01DC01C3
:1029000002C005900D9241505040D8F708956F9243
:102910007F929F92AF92BF92CF92DF92EF92FF92FF
:102920000F931F93CF93DF93CDB7DEB729970FB6E1
:10293000F894DEBF0FBECDBF6A01B22E102F0C334C
:1029400020F4FF24F394F00E02C04CE3F42E0F2D7C
:1029500027E0AE014F5F5F4F0E9405167981272F58
:102960002970213031F0E1FC06C0E0FC06C060E0D7
:1029700005C06DE203C06BE201C060E2AE2DA07144
:1029800073FF36C0662311F084E001C083E08B152D
:1029900010F4B81A01C0B12CA1110BC0F6018B2D97
:1029A00090E2882319F091938150FBCFCB0CD11C7E
:1029B000B12C662331F0F601608396012F5F3F4F03
:1029C0006901C6010396E2FE05C02EE4F6012083EC
:1029D00031E404C02EE6F601208331E63183228300
:1029E000FC012B2D30E22223F1F131932150FBCF5A
:1029F00072FF40C0662311F084E001C083E08B15B4
:102A000010F4B81A01C0B12CA1110BC0F6018B2D26
:102A100090E2882319F091938150FBCFCB0CD11C0D
:102A2000B12C662331F0F601608396012F5F3F4F92
:102A30006901C6010396E2FE07C029E4F60120837E
:102A40002EE4218326E406C029E6F60120832EE643
:102A5000218326E62283FC012B2D30E2222319F06C
:102A600031932150FBCFFC01EB0DF11D10828EEF55
:102A70009FEFB7C0B1E0611101C0B0E04B2F50E053
:102A80001816190624F49C012F5F3F4F02C021E065
:102A900030E0240F351F112329F0412F50E04F5F04
:102AA0005F4F02C040E050E0420F531F2B2D30E03B
:102AB0004217530714F4B41A01C0B12C2E2D2871FB
:102AC00059F4F6012B2D30E2222319F031932150D5
:102AD000FBCFCB0CD11CB12CBB2331F0F6016083B2
:102AE00096012F5F3F4F6901A1110BC0F6012B2DFD
:102AF00030E3222319F031932150FBCFCB0CD11CB2
:102B0000B12CF80E0A81372F3071A32E74FF03C049
:102B1000013309F4FA941F142CF42F2D293018F0E6
:102B200028E001C021E0682F392F97FF02C060E044
:102B300030E0462F532F612C712C3EE2932EBC01C6
:102B4000621B71099B01DC01A41BB50BE1E0F0E005
:102B5000EC0FFD1FAE0FBF1FE12EF12CF194E1949D
:102B6000F1084F3FFFEF5F0731F4F6019082B601A5
:102B70006F5F7F4F6B01841795074CF02417350763
:102B800034F4BD01660D771DFB01118101C010E316
:102B900041505109FFEF6F1A7F0AB6016F5F7F4FF7
:102BA0004E155F0524F0F60110836B01DACF48174C
:102BB000590739F4063320F4053319F4A11001C084
:102BC00011E3F6011083FB018B2D90E2882319F0AD
:102BD00091938150FBCFFB01EB0DF11D108280E042
:102BE00090E029960FB6F894DEBF0FBECDBFDF91FF
:102BF000CF911F910F91FF90EF90DF90CF90BF90FA
:102C0000AF909F907F906F900895283008F027E054
:102C10003327DA01990F311D87FD91600096610518
:102C2000710539F432602E5F3D9330E32A95E1F768
:102C300008959F3F30F080387105610509F03C5FD1
:102C40003C5F3D93913008F08068911DDF93CF93F6
:102C50001F930F93FF92EF92192F987F9695E92F6C
:102C600096959695E90FFF27E157FA4F9927332755
:102C7000EE24FF24A701E70105900894079428F4A7
:102C8000360FE71EF81E491F511D660F771F881F5C
:102C9000991F0694A1F70590079428F4E70EF81EF3
:102CA000491F561FC11D770F881F991F661F069465
:102CB000A1F70590079428F4F80E491F561FC71F67
:102CC000D11D880F991F661F771F0694A1F70590E5
:102CD000079420F4490F561FC71FD81F990F661F6E
:102CE000771F881F0694A9F784911095177041F0FB
:102CF000D695C79557954795F794E7941A95C1F7D8
:102D0000E5E3F5E0689415901591359165919591FD
:102D100005907FE27395E118F10A430B560BC90B3E
:102D2000D009C0F7E10CF11E431F561FC91FD01D6B
:102D30007EF4703311F48A95E6CFE894015030F0B8
:102D4000080F0AF40027021708F4202F2395022FFA
:102D50007A3328F079E37D932A95E9F710C07D93C3
:102D60002A9589F606949795679537951795179440
:102D7000E118F10A430B560BC90BD00998F02395C3
:102D80007E9173957A3308F070E37C932013B8F743
:102D90007E9170617D9330F0839571E37D9370E354
:102DA0002A95E1F71124EF90FF900F911F91CF9199
:0E2DB000DF91992787FD90950895F894FFCF45
:082DBE0076302E331B0AF800E9
:00000001FF
